{
	"market.sol": {
		"MarketplaceNFT": {
			"abi": [
				{
					"inputs": [
						{
							"internalType": "address",
							"name": "tokenAddress",
							"type": "address"
						}
					],
					"stateMutability": "nonpayable",
					"type": "constructor"
				},
				{
					"inputs": [
						{
							"internalType": "address",
							"name": "nftAddress",
							"type": "address"
						},
						{
							"internalType": "uint256",
							"name": "tokenId",
							"type": "uint256"
						}
					],
					"name": "cancelarListado",
					"outputs": [],
					"stateMutability": "nonpayable",
					"type": "function"
				},
				{
					"inputs": [
						{
							"internalType": "address",
							"name": "nftAddress",
							"type": "address"
						},
						{
							"internalType": "uint256",
							"name": "tokenId",
							"type": "uint256"
						}
					],
					"name": "comprarNFT",
					"outputs": [],
					"stateMutability": "nonpayable",
					"type": "function"
				},
				{
					"inputs": [
						{
							"internalType": "address",
							"name": "nftAddress",
							"type": "address"
						},
						{
							"internalType": "uint256",
							"name": "tokenId",
							"type": "uint256"
						},
						{
							"internalType": "uint256",
							"name": "precio",
							"type": "uint256"
						}
					],
					"name": "listarNFT",
					"outputs": [],
					"stateMutability": "nonpayable",
					"type": "function"
				},
				{
					"inputs": [
						{
							"internalType": "address",
							"name": "",
							"type": "address"
						},
						{
							"internalType": "uint256",
							"name": "",
							"type": "uint256"
						}
					],
					"name": "listings",
					"outputs": [
						{
							"internalType": "address",
							"name": "seller",
							"type": "address"
						},
						{
							"internalType": "uint256",
							"name": "price",
							"type": "uint256"
						}
					],
					"stateMutability": "view",
					"type": "function"
				},
				{
					"inputs": [],
					"name": "pagoToken",
					"outputs": [
						{
							"internalType": "contract IERC20",
							"name": "",
							"type": "address"
						}
					],
					"stateMutability": "view",
					"type": "function"
				}
			],
			"devdoc": {
				"kind": "dev",
				"methods": {},
				"version": 1
			},
			"evm": {
				"assembly": "    /* \"market.sol\":180:2156  contract MarketplaceNFT {... */\n  mstore(0x40, 0x80)\n    /* \"market.sol\":472:557  constructor(address tokenAddress) {... */\n  callvalue\n  dup1\n  iszero\n  tag_1\n  jumpi\n  0x00\n  dup1\n  revert\ntag_1:\n  pop\n  mload(0x40)\n  sub(codesize, bytecodeSize)\n  dup1\n  bytecodeSize\n  dup4\n  codecopy\n  dup2\n  dup2\n  add\n  0x40\n  mstore\n  dup2\n  add\n  swap1\n  tag_2\n  swap2\n  swap1\n  tag_3\n  jump\t// in\ntag_2:\n    /* \"market.sol\":536:548  tokenAddress */\n  dup1\n    /* \"market.sol\":517:526  pagoToken */\n  0x01\n  0x00\n    /* \"market.sol\":517:549  pagoToken = IERC20(tokenAddress) */\n  0x0100\n  exp\n  dup2\n  sload\n  dup2\n  0xffffffffffffffffffffffffffffffffffffffff\n  mul\n  not\n  and\n  swap1\n  dup4\n  0xffffffffffffffffffffffffffffffffffffffff\n  and\n  mul\n  or\n  swap1\n  sstore\n  pop\n    /* \"market.sol\":472:557  constructor(address tokenAddress) {... */\n  pop\n    /* \"market.sol\":180:2156  contract MarketplaceNFT {... */\n  jump(tag_6)\n    /* \"#utility.yul\":88:205   */\ntag_8:\n    /* \"#utility.yul\":197:198   */\n  0x00\n    /* \"#utility.yul\":194:195   */\n  dup1\n    /* \"#utility.yul\":187:199   */\n  revert\n    /* \"#utility.yul\":334:460   */\ntag_10:\n    /* \"#utility.yul\":371:378   */\n  0x00\n    /* \"#utility.yul\":411:453   */\n  0xffffffffffffffffffffffffffffffffffffffff\n    /* \"#utility.yul\":404:409   */\n  dup3\n    /* \"#utility.yul\":400:454   */\n  and\n    /* \"#utility.yul\":389:454   */\n  swap1\n  pop\n    /* \"#utility.yul\":334:460   */\n  swap2\n  swap1\n  pop\n  jump\t// out\n    /* \"#utility.yul\":466:562   */\ntag_11:\n    /* \"#utility.yul\":503:510   */\n  0x00\n    /* \"#utility.yul\":532:556   */\n  tag_20\n    /* \"#utility.yul\":550:555   */\n  dup3\n    /* \"#utility.yul\":532:556   */\n  tag_10\n  jump\t// in\ntag_20:\n    /* \"#utility.yul\":521:556   */\n  swap1\n  pop\n    /* \"#utility.yul\":466:562   */\n  swap2\n  swap1\n  pop\n  jump\t// out\n    /* \"#utility.yul\":568:690   */\ntag_12:\n    /* \"#utility.yul\":641:665   */\n  tag_22\n    /* \"#utility.yul\":659:664   */\n  dup2\n    /* \"#utility.yul\":641:665   */\n  tag_11\n  jump\t// in\ntag_22:\n    /* \"#utility.yul\":634:639   */\n  dup2\n    /* \"#utility.yul\":631:666   */\n  eq\n    /* \"#utility.yul\":621:684   */\n  tag_23\n  jumpi\n    /* \"#utility.yul\":680:681   */\n  0x00\n    /* \"#utility.yul\":677:678   */\n  dup1\n    /* \"#utility.yul\":670:682   */\n  revert\n    /* \"#utility.yul\":621:684   */\ntag_23:\n    /* \"#utility.yul\":568:690   */\n  pop\n  jump\t// out\n    /* \"#utility.yul\":696:839   */\ntag_13:\n    /* \"#utility.yul\":753:758   */\n  0x00\n    /* \"#utility.yul\":784:790   */\n  dup2\n    /* \"#utility.yul\":778:791   */\n  mload\n    /* \"#utility.yul\":769:791   */\n  swap1\n  pop\n    /* \"#utility.yul\":800:833   */\n  tag_25\n    /* \"#utility.yul\":827:832   */\n  dup2\n    /* \"#utility.yul\":800:833   */\n  tag_12\n  jump\t// in\ntag_25:\n    /* \"#utility.yul\":696:839   */\n  swap3\n  swap2\n  pop\n  pop\n  jump\t// out\n    /* \"#utility.yul\":845:1196   */\ntag_3:\n    /* \"#utility.yul\":915:921   */\n  0x00\n    /* \"#utility.yul\":964:966   */\n  0x20\n    /* \"#utility.yul\":952:961   */\n  dup3\n    /* \"#utility.yul\":943:950   */\n  dup5\n    /* \"#utility.yul\":939:962   */\n  sub\n    /* \"#utility.yul\":935:967   */\n  slt\n    /* \"#utility.yul\":932:1051   */\n  iszero\n  tag_27\n  jumpi\n    /* \"#utility.yul\":970:1049   */\n  tag_28\n  tag_8\n  jump\t// in\ntag_28:\n    /* \"#utility.yul\":932:1051   */\ntag_27:\n    /* \"#utility.yul\":1090:1091   */\n  0x00\n    /* \"#utility.yul\":1115:1179   */\n  tag_29\n    /* \"#utility.yul\":1171:1178   */\n  dup5\n    /* \"#utility.yul\":1162:1168   */\n  dup3\n    /* \"#utility.yul\":1151:1160   */\n  dup6\n    /* \"#utility.yul\":1147:1169   */\n  add\n    /* \"#utility.yul\":1115:1179   */\n  tag_13\n  jump\t// in\ntag_29:\n    /* \"#utility.yul\":1105:1179   */\n  swap2\n  pop\n    /* \"#utility.yul\":1061:1189   */\n  pop\n    /* \"#utility.yul\":845:1196   */\n  swap3\n  swap2\n  pop\n  pop\n  jump\t// out\n    /* \"market.sol\":180:2156  contract MarketplaceNFT {... */\ntag_6:\n  dataSize(sub_0)\n  dup1\n  dataOffset(sub_0)\n  0x00\n  codecopy\n  0x00\n  return\nstop\n\nsub_0: assembly {\n        /* \"market.sol\":180:2156  contract MarketplaceNFT {... */\n      mstore(0x40, 0x80)\n      callvalue\n      dup1\n      iszero\n      tag_1\n      jumpi\n      0x00\n      dup1\n      revert\n    tag_1:\n      pop\n      jumpi(tag_2, lt(calldatasize, 0x04))\n      shr(0xe0, calldataload(0x00))\n      dup1\n      0x07df30\n      eq\n      tag_3\n      jumpi\n      dup1\n      0x890c9684\n      eq\n      tag_4\n      jumpi\n      dup1\n      0xc413cc90\n      eq\n      tag_5\n      jumpi\n      dup1\n      0xd42bb778\n      eq\n      tag_6\n      jumpi\n      dup1\n      0xf998c146\n      eq\n      tag_7\n      jumpi\n    tag_2:\n      0x00\n      dup1\n      revert\n        /* \"market.sol\":368:431  mapping(address => mapping(uint256 => Listing)) public listings */\n    tag_3:\n      tag_8\n      0x04\n      dup1\n      calldatasize\n      sub\n      dup2\n      add\n      swap1\n      tag_9\n      swap2\n      swap1\n      tag_10\n      jump\t// in\n    tag_9:\n      tag_11\n      jump\t// in\n    tag_8:\n      mload(0x40)\n      tag_12\n      swap3\n      swap2\n      swap1\n      tag_13\n      jump\t// in\n    tag_12:\n      mload(0x40)\n      dup1\n      swap2\n      sub\n      swap1\n      return\n        /* \"market.sol\":1899:2153  function cancelarListado(address nftAddress, uint256 tokenId) public {... */\n    tag_4:\n      tag_14\n      0x04\n      dup1\n      calldatasize\n      sub\n      dup2\n      add\n      swap1\n      tag_15\n      swap2\n      swap1\n      tag_10\n      jump\t// in\n    tag_15:\n      tag_16\n      jump\t// in\n    tag_14:\n      stop\n        /* \"market.sol\":612:1137  function listarNFT(address nftAddress, uint256 tokenId, uint256 precio) public {... */\n    tag_5:\n      tag_17\n      0x04\n      dup1\n      calldatasize\n      sub\n      dup2\n      add\n      swap1\n      tag_18\n      swap2\n      swap1\n      tag_19\n      jump\t// in\n    tag_18:\n      tag_20\n      jump\t// in\n    tag_17:\n      stop\n        /* \"market.sol\":440:463  IERC20 public pagoToken */\n    tag_6:\n      tag_21\n      tag_22\n      jump\t// in\n    tag_21:\n      mload(0x40)\n      tag_23\n      swap2\n      swap1\n      tag_24\n      jump\t// in\n    tag_23:\n      mload(0x40)\n      dup1\n      swap2\n      sub\n      swap1\n      return\n        /* \"market.sol\":1190:1809  function comprarNFT(address nftAddress, uint256 tokenId) public {... */\n    tag_7:\n      tag_25\n      0x04\n      dup1\n      calldatasize\n      sub\n      dup2\n      add\n      swap1\n      tag_26\n      swap2\n      swap1\n      tag_10\n      jump\t// in\n    tag_26:\n      tag_27\n      jump\t// in\n    tag_25:\n      stop\n        /* \"market.sol\":368:431  mapping(address => mapping(uint256 => Listing)) public listings */\n    tag_11:\n      mstore(0x20, 0x00)\n      dup2\n      0x00\n      mstore\n      mstore(0x20, keccak256(0x00, 0x40))\n      dup1\n      0x00\n      mstore\n      keccak256(0x00, 0x40)\n      0x00\n      swap2\n      pop\n      swap2\n      pop\n      pop\n      dup1\n      0x00\n      add\n      0x00\n      swap1\n      sload\n      swap1\n      0x0100\n      exp\n      swap1\n      div\n      0xffffffffffffffffffffffffffffffffffffffff\n      and\n      swap1\n      dup1\n      0x01\n      add\n      sload\n      swap1\n      pop\n      dup3\n      jump\t// out\n        /* \"market.sol\":1899:2153  function cancelarListado(address nftAddress, uint256 tokenId) public {... */\n    tag_16:\n        /* \"market.sol\":1979:1998  Listing memory item */\n      0x00\n        /* \"market.sol\":2001:2009  listings */\n      dup1\n        /* \"market.sol\":2001:2021  listings[nftAddress] */\n      0x00\n        /* \"market.sol\":2010:2020  nftAddress */\n      dup5\n        /* \"market.sol\":2001:2021  listings[nftAddress] */\n      0xffffffffffffffffffffffffffffffffffffffff\n      and\n      0xffffffffffffffffffffffffffffffffffffffff\n      and\n      dup2\n      mstore\n      0x20\n      add\n      swap1\n      dup2\n      mstore\n      0x20\n      add\n      0x00\n      keccak256\n        /* \"market.sol\":2001:2030  listings[nftAddress][tokenId] */\n      0x00\n        /* \"market.sol\":2022:2029  tokenId */\n      dup4\n        /* \"market.sol\":2001:2030  listings[nftAddress][tokenId] */\n      dup2\n      mstore\n      0x20\n      add\n      swap1\n      dup2\n      mstore\n      0x20\n      add\n      0x00\n      keccak256\n        /* \"market.sol\":1979:2030  Listing memory item = listings[nftAddress][tokenId] */\n      mload(0x40)\n      dup1\n      0x40\n      add\n      0x40\n      mstore\n      swap1\n      dup2\n      0x00\n      dup3\n      add\n      0x00\n      swap1\n      sload\n      swap1\n      0x0100\n      exp\n      swap1\n      div\n      0xffffffffffffffffffffffffffffffffffffffff\n      and\n      0xffffffffffffffffffffffffffffffffffffffff\n      and\n      0xffffffffffffffffffffffffffffffffffffffff\n      and\n      dup2\n      mstore\n      0x20\n      add\n      0x01\n      dup3\n      add\n      sload\n      dup2\n      mstore\n      pop\n      pop\n      swap1\n      pop\n        /* \"market.sol\":2064:2074  msg.sender */\n      caller\n        /* \"market.sol\":2049:2074  item.seller == msg.sender */\n      0xffffffffffffffffffffffffffffffffffffffff\n      and\n        /* \"market.sol\":2049:2053  item */\n      dup2\n        /* \"market.sol\":2049:2060  item.seller */\n      0x00\n      add\n      mload\n        /* \"market.sol\":2049:2074  item.seller == msg.sender */\n      0xffffffffffffffffffffffffffffffffffffffff\n      and\n      eq\n        /* \"market.sol\":2041:2098  require(item.seller == msg.sender, \"No eres el vendedor\") */\n      tag_29\n      jumpi\n      mload(0x40)\n      0x08c379a000000000000000000000000000000000000000000000000000000000\n      dup2\n      mstore\n      0x04\n      add\n      tag_30\n      swap1\n      tag_31\n      jump\t// in\n    tag_30:\n      mload(0x40)\n      dup1\n      swap2\n      sub\n      swap1\n      revert\n    tag_29:\n        /* \"market.sol\":2116:2124  listings */\n      0x00\n        /* \"market.sol\":2116:2136  listings[nftAddress] */\n      dup1\n        /* \"market.sol\":2125:2135  nftAddress */\n      dup5\n        /* \"market.sol\":2116:2136  listings[nftAddress] */\n      0xffffffffffffffffffffffffffffffffffffffff\n      and\n      0xffffffffffffffffffffffffffffffffffffffff\n      and\n      dup2\n      mstore\n      0x20\n      add\n      swap1\n      dup2\n      mstore\n      0x20\n      add\n      0x00\n      keccak256\n        /* \"market.sol\":2116:2145  listings[nftAddress][tokenId] */\n      0x00\n        /* \"market.sol\":2137:2144  tokenId */\n      dup4\n        /* \"market.sol\":2116:2145  listings[nftAddress][tokenId] */\n      dup2\n      mstore\n      0x20\n      add\n      swap1\n      dup2\n      mstore\n      0x20\n      add\n      0x00\n      keccak256\n      0x00\n        /* \"market.sol\":2109:2145  delete listings[nftAddress][tokenId] */\n      dup1\n      dup3\n      add\n      exp(0x0100, 0x00)\n      dup2\n      sload\n      swap1\n      0xffffffffffffffffffffffffffffffffffffffff\n      mul\n      not\n      and\n      swap1\n      sstore\n      0x01\n      dup3\n      add\n      0x00\n      swap1\n      sstore\n      pop\n      pop\n        /* \"market.sol\":1968:2153  {... */\n      pop\n        /* \"market.sol\":1899:2153  function cancelarListado(address nftAddress, uint256 tokenId) public {... */\n      pop\n      pop\n      jump\t// out\n        /* \"market.sol\":612:1137  function listarNFT(address nftAddress, uint256 tokenId, uint256 precio) public {... */\n    tag_20:\n        /* \"market.sol\":702:713  IERC721 nft */\n      0x00\n        /* \"market.sol\":724:734  nftAddress */\n      dup4\n        /* \"market.sol\":702:735  IERC721 nft = IERC721(nftAddress) */\n      swap1\n      pop\n        /* \"market.sol\":846:856  msg.sender */\n      caller\n        /* \"market.sol\":822:856  nft.ownerOf(tokenId) == msg.sender */\n      0xffffffffffffffffffffffffffffffffffffffff\n      and\n        /* \"market.sol\":822:825  nft */\n      dup2\n        /* \"market.sol\":822:833  nft.ownerOf */\n      0xffffffffffffffffffffffffffffffffffffffff\n      and\n      0x6352211e\n        /* \"market.sol\":834:841  tokenId */\n      dup6\n        /* \"market.sol\":822:842  nft.ownerOf(tokenId) */\n      mload(0x40)\n      dup3\n      0xffffffff\n      and\n      0xe0\n      shl\n      dup2\n      mstore\n      0x04\n      add\n      tag_33\n      swap2\n      swap1\n      tag_34\n      jump\t// in\n    tag_33:\n      0x20\n      mload(0x40)\n      dup1\n      dup4\n      sub\n      dup2\n      dup7\n      gas\n      staticcall\n      iszero\n      dup1\n      iszero\n      tag_36\n      jumpi\n      returndatasize\n      0x00\n      dup1\n      returndatacopy\n      revert(0x00, returndatasize)\n    tag_36:\n      pop\n      pop\n      pop\n      pop\n      mload(0x40)\n      returndatasize\n      not(0x1f)\n      0x1f\n      dup3\n      add\n      and\n      dup3\n      add\n      dup1\n      0x40\n      mstore\n      pop\n      dup2\n      add\n      swap1\n      tag_37\n      swap2\n      swap1\n      tag_38\n      jump\t// in\n    tag_37:\n        /* \"market.sol\":822:856  nft.ownerOf(tokenId) == msg.sender */\n      0xffffffffffffffffffffffffffffffffffffffff\n      and\n      eq\n        /* \"market.sol\":814:883  require(nft.ownerOf(tokenId) == msg.sender, \"No eres el propietario\") */\n      tag_39\n      jumpi\n      mload(0x40)\n      0x08c379a000000000000000000000000000000000000000000000000000000000\n      dup2\n      mstore\n      0x04\n      add\n      tag_40\n      swap1\n      tag_41\n      jump\t// in\n    tag_40:\n      mload(0x40)\n      dup1\n      swap2\n      sub\n      swap1\n      revert\n    tag_39:\n        /* \"market.sol\":952:956  this */\n      address\n        /* \"market.sol\":916:957  nft.getApproved(tokenId) == address(this) */\n      0xffffffffffffffffffffffffffffffffffffffff\n      and\n        /* \"market.sol\":916:919  nft */\n      dup2\n        /* \"market.sol\":916:931  nft.getApproved */\n      0xffffffffffffffffffffffffffffffffffffffff\n      and\n      0x081812fc\n        /* \"market.sol\":932:939  tokenId */\n      dup6\n        /* \"market.sol\":916:940  nft.getApproved(tokenId) */\n      mload(0x40)\n      dup3\n      0xffffffff\n      and\n      0xe0\n      shl\n      dup2\n      mstore\n      0x04\n      add\n      tag_42\n      swap2\n      swap1\n      tag_34\n      jump\t// in\n    tag_42:\n      0x20\n      mload(0x40)\n      dup1\n      dup4\n      sub\n      dup2\n      dup7\n      gas\n      staticcall\n      iszero\n      dup1\n      iszero\n      tag_44\n      jumpi\n      returndatasize\n      0x00\n      dup1\n      returndatacopy\n      revert(0x00, returndatasize)\n    tag_44:\n      pop\n      pop\n      pop\n      pop\n      mload(0x40)\n      returndatasize\n      not(0x1f)\n      0x1f\n      dup3\n      add\n      and\n      dup3\n      add\n      dup1\n      0x40\n      mstore\n      pop\n      dup2\n      add\n      swap1\n      tag_45\n      swap2\n      swap1\n      tag_38\n      jump\t// in\n    tag_45:\n        /* \"market.sol\":916:957  nft.getApproved(tokenId) == address(this) */\n      0xffffffffffffffffffffffffffffffffffffffff\n      and\n      eq\n        /* \"market.sol\":916:1008  nft.getApproved(tokenId) == address(this) || nft.isApprovedForAll(msg.sender, address(this)) */\n      dup1\n      tag_46\n      jumpi\n      pop\n        /* \"market.sol\":961:964  nft */\n      dup1\n        /* \"market.sol\":961:981  nft.isApprovedForAll */\n      0xffffffffffffffffffffffffffffffffffffffff\n      and\n      0xe985e9c5\n        /* \"market.sol\":982:992  msg.sender */\n      caller\n        /* \"market.sol\":1002:1006  this */\n      address\n        /* \"market.sol\":961:1008  nft.isApprovedForAll(msg.sender, address(this)) */\n      mload(0x40)\n      dup4\n      0xffffffff\n      and\n      0xe0\n      shl\n      dup2\n      mstore\n      0x04\n      add\n      tag_47\n      swap3\n      swap2\n      swap1\n      tag_48\n      jump\t// in\n    tag_47:\n      0x20\n      mload(0x40)\n      dup1\n      dup4\n      sub\n      dup2\n      dup7\n      gas\n      staticcall\n      iszero\n      dup1\n      iszero\n      tag_50\n      jumpi\n      returndatasize\n      0x00\n      dup1\n      returndatacopy\n      revert(0x00, returndatasize)\n    tag_50:\n      pop\n      pop\n      pop\n      pop\n      mload(0x40)\n      returndatasize\n      not(0x1f)\n      0x1f\n      dup3\n      add\n      and\n      dup3\n      add\n      dup1\n      0x40\n      mstore\n      pop\n      dup2\n      add\n      swap1\n      tag_51\n      swap2\n      swap1\n      tag_52\n      jump\t// in\n    tag_51:\n        /* \"market.sol\":916:1008  nft.getApproved(tokenId) == address(this) || nft.isApprovedForAll(msg.sender, address(this)) */\n    tag_46:\n        /* \"market.sol\":894:1059  require(... */\n      tag_53\n      jumpi\n      mload(0x40)\n      0x08c379a000000000000000000000000000000000000000000000000000000000\n      dup2\n      mstore\n      0x04\n      add\n      tag_54\n      swap1\n      tag_55\n      jump\t// in\n    tag_54:\n      mload(0x40)\n      dup1\n      swap2\n      sub\n      swap1\n      revert\n    tag_53:\n        /* \"market.sol\":1102:1129  Listing(msg.sender, precio) */\n      mload(0x40)\n      dup1\n      0x40\n      add\n      0x40\n      mstore\n      dup1\n        /* \"market.sol\":1110:1120  msg.sender */\n      caller\n        /* \"market.sol\":1102:1129  Listing(msg.sender, precio) */\n      0xffffffffffffffffffffffffffffffffffffffff\n      and\n      dup2\n      mstore\n      0x20\n      add\n        /* \"market.sol\":1122:1128  precio */\n      dup4\n        /* \"market.sol\":1102:1129  Listing(msg.sender, precio) */\n      dup2\n      mstore\n      pop\n        /* \"market.sol\":1070:1078  listings */\n      0x00\n        /* \"market.sol\":1070:1090  listings[nftAddress] */\n      dup1\n        /* \"market.sol\":1079:1089  nftAddress */\n      dup7\n        /* \"market.sol\":1070:1090  listings[nftAddress] */\n      0xffffffffffffffffffffffffffffffffffffffff\n      and\n      0xffffffffffffffffffffffffffffffffffffffff\n      and\n      dup2\n      mstore\n      0x20\n      add\n      swap1\n      dup2\n      mstore\n      0x20\n      add\n      0x00\n      keccak256\n        /* \"market.sol\":1070:1099  listings[nftAddress][tokenId] */\n      0x00\n        /* \"market.sol\":1091:1098  tokenId */\n      dup6\n        /* \"market.sol\":1070:1099  listings[nftAddress][tokenId] */\n      dup2\n      mstore\n      0x20\n      add\n      swap1\n      dup2\n      mstore\n      0x20\n      add\n      0x00\n      keccak256\n        /* \"market.sol\":1070:1129  listings[nftAddress][tokenId] = Listing(msg.sender, precio) */\n      0x00\n      dup3\n      add\n      mload\n      dup2\n      0x00\n      add\n      exp(0x0100, 0x00)\n      dup2\n      sload\n      dup2\n      0xffffffffffffffffffffffffffffffffffffffff\n      mul\n      not\n      and\n      swap1\n      dup4\n      0xffffffffffffffffffffffffffffffffffffffff\n      and\n      mul\n      or\n      swap1\n      sstore\n      pop\n      0x20\n      dup3\n      add\n      mload\n      dup2\n      0x01\n      add\n      sstore\n      swap1\n      pop\n      pop\n        /* \"market.sol\":691:1137  {... */\n      pop\n        /* \"market.sol\":612:1137  function listarNFT(address nftAddress, uint256 tokenId, uint256 precio) public {... */\n      pop\n      pop\n      pop\n      jump\t// out\n        /* \"market.sol\":440:463  IERC20 public pagoToken */\n    tag_22:\n      0x01\n      0x00\n      swap1\n      sload\n      swap1\n      0x0100\n      exp\n      swap1\n      div\n      0xffffffffffffffffffffffffffffffffffffffff\n      and\n      dup2\n      jump\t// out\n        /* \"market.sol\":1190:1809  function comprarNFT(address nftAddress, uint256 tokenId) public {... */\n    tag_27:\n        /* \"market.sol\":1265:1284  Listing memory item */\n      0x00\n        /* \"market.sol\":1287:1295  listings */\n      dup1\n        /* \"market.sol\":1287:1307  listings[nftAddress] */\n      0x00\n        /* \"market.sol\":1296:1306  nftAddress */\n      dup5\n        /* \"market.sol\":1287:1307  listings[nftAddress] */\n      0xffffffffffffffffffffffffffffffffffffffff\n      and\n      0xffffffffffffffffffffffffffffffffffffffff\n      and\n      dup2\n      mstore\n      0x20\n      add\n      swap1\n      dup2\n      mstore\n      0x20\n      add\n      0x00\n      keccak256\n        /* \"market.sol\":1287:1316  listings[nftAddress][tokenId] */\n      0x00\n        /* \"market.sol\":1308:1315  tokenId */\n      dup4\n        /* \"market.sol\":1287:1316  listings[nftAddress][tokenId] */\n      dup2\n      mstore\n      0x20\n      add\n      swap1\n      dup2\n      mstore\n      0x20\n      add\n      0x00\n      keccak256\n        /* \"market.sol\":1265:1316  Listing memory item = listings[nftAddress][tokenId] */\n      mload(0x40)\n      dup1\n      0x40\n      add\n      0x40\n      mstore\n      swap1\n      dup2\n      0x00\n      dup3\n      add\n      0x00\n      swap1\n      sload\n      swap1\n      0x0100\n      exp\n      swap1\n      div\n      0xffffffffffffffffffffffffffffffffffffffff\n      and\n      0xffffffffffffffffffffffffffffffffffffffff\n      and\n      0xffffffffffffffffffffffffffffffffffffffff\n      and\n      dup2\n      mstore\n      0x20\n      add\n      0x01\n      dup3\n      add\n      sload\n      dup2\n      mstore\n      pop\n      pop\n      swap1\n      pop\n        /* \"market.sol\":1358:1359  0 */\n      0x00\n        /* \"market.sol\":1335:1360  item.seller != address(0) */\n      0xffffffffffffffffffffffffffffffffffffffff\n      and\n        /* \"market.sol\":1335:1339  item */\n      dup2\n        /* \"market.sol\":1335:1346  item.seller */\n      0x00\n      add\n      mload\n        /* \"market.sol\":1335:1360  item.seller != address(0) */\n      0xffffffffffffffffffffffffffffffffffffffff\n      and\n      sub\n        /* \"market.sol\":1327:1379  require(item.seller != address(0), \"NFT no listado\") */\n      tag_57\n      jumpi\n      mload(0x40)\n      0x08c379a000000000000000000000000000000000000000000000000000000000\n      dup2\n      mstore\n      0x04\n      add\n      tag_58\n      swap1\n      tag_59\n      jump\t// in\n    tag_58:\n      mload(0x40)\n      dup1\n      swap2\n      sub\n      swap1\n      revert\n    tag_57:\n        /* \"market.sol\":1469:1478  pagoToken */\n      0x01\n      0x00\n      swap1\n      sload\n      swap1\n      0x0100\n      exp\n      swap1\n      div\n      0xffffffffffffffffffffffffffffffffffffffff\n      and\n        /* \"market.sol\":1469:1491  pagoToken.transferFrom */\n      0xffffffffffffffffffffffffffffffffffffffff\n      and\n      0x23b872dd\n        /* \"market.sol\":1492:1502  msg.sender */\n      caller\n        /* \"market.sol\":1504:1508  item */\n      dup4\n        /* \"market.sol\":1504:1515  item.seller */\n      0x00\n      add\n      mload\n        /* \"market.sol\":1517:1521  item */\n      dup5\n        /* \"market.sol\":1517:1527  item.price */\n      0x20\n      add\n      mload\n        /* \"market.sol\":1469:1528  pagoToken.transferFrom(msg.sender, item.seller, item.price) */\n      mload(0x40)\n      dup5\n      0xffffffff\n      and\n      0xe0\n      shl\n      dup2\n      mstore\n      0x04\n      add\n      tag_60\n      swap4\n      swap3\n      swap2\n      swap1\n      tag_61\n      jump\t// in\n    tag_60:\n      0x20\n      mload(0x40)\n      dup1\n      dup4\n      sub\n      dup2\n      0x00\n      dup8\n      gas\n      call\n      iszero\n      dup1\n      iszero\n      tag_63\n      jumpi\n      returndatasize\n      0x00\n      dup1\n      returndatacopy\n      revert(0x00, returndatasize)\n    tag_63:\n      pop\n      pop\n      pop\n      pop\n      mload(0x40)\n      returndatasize\n      not(0x1f)\n      0x1f\n      dup3\n      add\n      and\n      dup3\n      add\n      dup1\n      0x40\n      mstore\n      pop\n      dup2\n      add\n      swap1\n      tag_64\n      swap2\n      swap1\n      tag_52\n      jump\t// in\n    tag_64:\n        /* \"market.sol\":1447:1587  require(... */\n      tag_65\n      jumpi\n      mload(0x40)\n      0x08c379a000000000000000000000000000000000000000000000000000000000\n      dup2\n      mstore\n      0x04\n      add\n      tag_66\n      swap1\n      tag_67\n      jump\t// in\n    tag_66:\n      mload(0x40)\n      dup1\n      swap2\n      sub\n      swap1\n      revert\n    tag_65:\n        /* \"market.sol\":1664:1674  nftAddress */\n      dup3\n        /* \"market.sol\":1656:1688  IERC721(nftAddress).transferFrom */\n      0xffffffffffffffffffffffffffffffffffffffff\n      and\n      0x23b872dd\n        /* \"market.sol\":1689:1693  item */\n      dup3\n        /* \"market.sol\":1689:1700  item.seller */\n      0x00\n      add\n      mload\n        /* \"market.sol\":1702:1712  msg.sender */\n      caller\n        /* \"market.sol\":1714:1721  tokenId */\n      dup6\n        /* \"market.sol\":1656:1722  IERC721(nftAddress).transferFrom(item.seller, msg.sender, tokenId) */\n      mload(0x40)\n      dup5\n      0xffffffff\n      and\n      0xe0\n      shl\n      dup2\n      mstore\n      0x04\n      add\n      tag_68\n      swap4\n      swap3\n      swap2\n      swap1\n      tag_61\n      jump\t// in\n    tag_68:\n      0x00\n      mload(0x40)\n      dup1\n      dup4\n      sub\n      dup2\n      0x00\n      dup8\n      dup1\n      extcodesize\n      iszero\n      dup1\n      iszero\n      tag_69\n      jumpi\n      0x00\n      dup1\n      revert\n    tag_69:\n      pop\n      gas\n      call\n      iszero\n      dup1\n      iszero\n      tag_71\n      jumpi\n      returndatasize\n      0x00\n      dup1\n      returndatacopy\n      revert(0x00, returndatasize)\n    tag_71:\n      pop\n      pop\n      pop\n      pop\n        /* \"market.sol\":1772:1780  listings */\n      0x00\n        /* \"market.sol\":1772:1792  listings[nftAddress] */\n      dup1\n        /* \"market.sol\":1781:1791  nftAddress */\n      dup5\n        /* \"market.sol\":1772:1792  listings[nftAddress] */\n      0xffffffffffffffffffffffffffffffffffffffff\n      and\n      0xffffffffffffffffffffffffffffffffffffffff\n      and\n      dup2\n      mstore\n      0x20\n      add\n      swap1\n      dup2\n      mstore\n      0x20\n      add\n      0x00\n      keccak256\n        /* \"market.sol\":1772:1801  listings[nftAddress][tokenId] */\n      0x00\n        /* \"market.sol\":1793:1800  tokenId */\n      dup4\n        /* \"market.sol\":1772:1801  listings[nftAddress][tokenId] */\n      dup2\n      mstore\n      0x20\n      add\n      swap1\n      dup2\n      mstore\n      0x20\n      add\n      0x00\n      keccak256\n      0x00\n        /* \"market.sol\":1765:1801  delete listings[nftAddress][tokenId] */\n      dup1\n      dup3\n      add\n      exp(0x0100, 0x00)\n      dup2\n      sload\n      swap1\n      0xffffffffffffffffffffffffffffffffffffffff\n      mul\n      not\n      and\n      swap1\n      sstore\n      0x01\n      dup3\n      add\n      0x00\n      swap1\n      sstore\n      pop\n      pop\n        /* \"market.sol\":1254:1809  {... */\n      pop\n        /* \"market.sol\":1190:1809  function comprarNFT(address nftAddress, uint256 tokenId) public {... */\n      pop\n      pop\n      jump\t// out\n        /* \"#utility.yul\":88:205   */\n    tag_73:\n        /* \"#utility.yul\":197:198   */\n      0x00\n        /* \"#utility.yul\":194:195   */\n      dup1\n        /* \"#utility.yul\":187:199   */\n      revert\n        /* \"#utility.yul\":334:460   */\n    tag_75:\n        /* \"#utility.yul\":371:378   */\n      0x00\n        /* \"#utility.yul\":411:453   */\n      0xffffffffffffffffffffffffffffffffffffffff\n        /* \"#utility.yul\":404:409   */\n      dup3\n        /* \"#utility.yul\":400:454   */\n      and\n        /* \"#utility.yul\":389:454   */\n      swap1\n      pop\n        /* \"#utility.yul\":334:460   */\n      swap2\n      swap1\n      pop\n      jump\t// out\n        /* \"#utility.yul\":466:562   */\n    tag_76:\n        /* \"#utility.yul\":503:510   */\n      0x00\n        /* \"#utility.yul\":532:556   */\n      tag_110\n        /* \"#utility.yul\":550:555   */\n      dup3\n        /* \"#utility.yul\":532:556   */\n      tag_75\n      jump\t// in\n    tag_110:\n        /* \"#utility.yul\":521:556   */\n      swap1\n      pop\n        /* \"#utility.yul\":466:562   */\n      swap2\n      swap1\n      pop\n      jump\t// out\n        /* \"#utility.yul\":568:690   */\n    tag_77:\n        /* \"#utility.yul\":641:665   */\n      tag_112\n        /* \"#utility.yul\":659:664   */\n      dup2\n        /* \"#utility.yul\":641:665   */\n      tag_76\n      jump\t// in\n    tag_112:\n        /* \"#utility.yul\":634:639   */\n      dup2\n        /* \"#utility.yul\":631:666   */\n      eq\n        /* \"#utility.yul\":621:684   */\n      tag_113\n      jumpi\n        /* \"#utility.yul\":680:681   */\n      0x00\n        /* \"#utility.yul\":677:678   */\n      dup1\n        /* \"#utility.yul\":670:682   */\n      revert\n        /* \"#utility.yul\":621:684   */\n    tag_113:\n        /* \"#utility.yul\":568:690   */\n      pop\n      jump\t// out\n        /* \"#utility.yul\":696:835   */\n    tag_78:\n        /* \"#utility.yul\":742:747   */\n      0x00\n        /* \"#utility.yul\":780:786   */\n      dup2\n        /* \"#utility.yul\":767:787   */\n      calldataload\n        /* \"#utility.yul\":758:787   */\n      swap1\n      pop\n        /* \"#utility.yul\":796:829   */\n      tag_115\n        /* \"#utility.yul\":823:828   */\n      dup2\n        /* \"#utility.yul\":796:829   */\n      tag_77\n      jump\t// in\n    tag_115:\n        /* \"#utility.yul\":696:835   */\n      swap3\n      swap2\n      pop\n      pop\n      jump\t// out\n        /* \"#utility.yul\":841:918   */\n    tag_79:\n        /* \"#utility.yul\":878:885   */\n      0x00\n        /* \"#utility.yul\":907:912   */\n      dup2\n        /* \"#utility.yul\":896:912   */\n      swap1\n      pop\n        /* \"#utility.yul\":841:918   */\n      swap2\n      swap1\n      pop\n      jump\t// out\n        /* \"#utility.yul\":924:1046   */\n    tag_80:\n        /* \"#utility.yul\":997:1021   */\n      tag_118\n        /* \"#utility.yul\":1015:1020   */\n      dup2\n        /* \"#utility.yul\":997:1021   */\n      tag_79\n      jump\t// in\n    tag_118:\n        /* \"#utility.yul\":990:995   */\n      dup2\n        /* \"#utility.yul\":987:1022   */\n      eq\n        /* \"#utility.yul\":977:1040   */\n      tag_119\n      jumpi\n        /* \"#utility.yul\":1036:1037   */\n      0x00\n        /* \"#utility.yul\":1033:1034   */\n      dup1\n        /* \"#utility.yul\":1026:1038   */\n      revert\n        /* \"#utility.yul\":977:1040   */\n    tag_119:\n        /* \"#utility.yul\":924:1046   */\n      pop\n      jump\t// out\n        /* \"#utility.yul\":1052:1191   */\n    tag_81:\n        /* \"#utility.yul\":1098:1103   */\n      0x00\n        /* \"#utility.yul\":1136:1142   */\n      dup2\n        /* \"#utility.yul\":1123:1143   */\n      calldataload\n        /* \"#utility.yul\":1114:1143   */\n      swap1\n      pop\n        /* \"#utility.yul\":1152:1185   */\n      tag_121\n        /* \"#utility.yul\":1179:1184   */\n      dup2\n        /* \"#utility.yul\":1152:1185   */\n      tag_80\n      jump\t// in\n    tag_121:\n        /* \"#utility.yul\":1052:1191   */\n      swap3\n      swap2\n      pop\n      pop\n      jump\t// out\n        /* \"#utility.yul\":1197:1671   */\n    tag_10:\n        /* \"#utility.yul\":1265:1271   */\n      0x00\n        /* \"#utility.yul\":1273:1279   */\n      dup1\n        /* \"#utility.yul\":1322:1324   */\n      0x40\n        /* \"#utility.yul\":1310:1319   */\n      dup4\n        /* \"#utility.yul\":1301:1308   */\n      dup6\n        /* \"#utility.yul\":1297:1320   */\n      sub\n        /* \"#utility.yul\":1293:1325   */\n      slt\n        /* \"#utility.yul\":1290:1409   */\n      iszero\n      tag_123\n      jumpi\n        /* \"#utility.yul\":1328:1407   */\n      tag_124\n      tag_73\n      jump\t// in\n    tag_124:\n        /* \"#utility.yul\":1290:1409   */\n    tag_123:\n        /* \"#utility.yul\":1448:1449   */\n      0x00\n        /* \"#utility.yul\":1473:1526   */\n      tag_125\n        /* \"#utility.yul\":1518:1525   */\n      dup6\n        /* \"#utility.yul\":1509:1515   */\n      dup3\n        /* \"#utility.yul\":1498:1507   */\n      dup7\n        /* \"#utility.yul\":1494:1516   */\n      add\n        /* \"#utility.yul\":1473:1526   */\n      tag_78\n      jump\t// in\n    tag_125:\n        /* \"#utility.yul\":1463:1526   */\n      swap3\n      pop\n        /* \"#utility.yul\":1419:1536   */\n      pop\n        /* \"#utility.yul\":1575:1577   */\n      0x20\n        /* \"#utility.yul\":1601:1654   */\n      tag_126\n        /* \"#utility.yul\":1646:1653   */\n      dup6\n        /* \"#utility.yul\":1637:1643   */\n      dup3\n        /* \"#utility.yul\":1626:1635   */\n      dup7\n        /* \"#utility.yul\":1622:1644   */\n      add\n        /* \"#utility.yul\":1601:1654   */\n      tag_81\n      jump\t// in\n    tag_126:\n        /* \"#utility.yul\":1591:1654   */\n      swap2\n      pop\n        /* \"#utility.yul\":1546:1664   */\n      pop\n        /* \"#utility.yul\":1197:1671   */\n      swap3\n      pop\n      swap3\n      swap1\n      pop\n      jump\t// out\n        /* \"#utility.yul\":1677:1795   */\n    tag_82:\n        /* \"#utility.yul\":1764:1788   */\n      tag_128\n        /* \"#utility.yul\":1782:1787   */\n      dup2\n        /* \"#utility.yul\":1764:1788   */\n      tag_76\n      jump\t// in\n    tag_128:\n        /* \"#utility.yul\":1759:1762   */\n      dup3\n        /* \"#utility.yul\":1752:1789   */\n      mstore\n        /* \"#utility.yul\":1677:1795   */\n      pop\n      pop\n      jump\t// out\n        /* \"#utility.yul\":1801:1919   */\n    tag_83:\n        /* \"#utility.yul\":1888:1912   */\n      tag_130\n        /* \"#utility.yul\":1906:1911   */\n      dup2\n        /* \"#utility.yul\":1888:1912   */\n      tag_79\n      jump\t// in\n    tag_130:\n        /* \"#utility.yul\":1883:1886   */\n      dup3\n        /* \"#utility.yul\":1876:1913   */\n      mstore\n        /* \"#utility.yul\":1801:1919   */\n      pop\n      pop\n      jump\t// out\n        /* \"#utility.yul\":1925:2257   */\n    tag_13:\n        /* \"#utility.yul\":2046:2050   */\n      0x00\n        /* \"#utility.yul\":2084:2086   */\n      0x40\n        /* \"#utility.yul\":2073:2082   */\n      dup3\n        /* \"#utility.yul\":2069:2087   */\n      add\n        /* \"#utility.yul\":2061:2087   */\n      swap1\n      pop\n        /* \"#utility.yul\":2097:2168   */\n      tag_132\n        /* \"#utility.yul\":2165:2166   */\n      0x00\n        /* \"#utility.yul\":2154:2163   */\n      dup4\n        /* \"#utility.yul\":2150:2167   */\n      add\n        /* \"#utility.yul\":2141:2147   */\n      dup6\n        /* \"#utility.yul\":2097:2168   */\n      tag_82\n      jump\t// in\n    tag_132:\n        /* \"#utility.yul\":2178:2250   */\n      tag_133\n        /* \"#utility.yul\":2246:2248   */\n      0x20\n        /* \"#utility.yul\":2235:2244   */\n      dup4\n        /* \"#utility.yul\":2231:2249   */\n      add\n        /* \"#utility.yul\":2222:2228   */\n      dup5\n        /* \"#utility.yul\":2178:2250   */\n      tag_83\n      jump\t// in\n    tag_133:\n        /* \"#utility.yul\":1925:2257   */\n      swap4\n      swap3\n      pop\n      pop\n      pop\n      jump\t// out\n        /* \"#utility.yul\":2263:2882   */\n    tag_19:\n        /* \"#utility.yul\":2340:2346   */\n      0x00\n        /* \"#utility.yul\":2348:2354   */\n      dup1\n        /* \"#utility.yul\":2356:2362   */\n      0x00\n        /* \"#utility.yul\":2405:2407   */\n      0x60\n        /* \"#utility.yul\":2393:2402   */\n      dup5\n        /* \"#utility.yul\":2384:2391   */\n      dup7\n        /* \"#utility.yul\":2380:2403   */\n      sub\n        /* \"#utility.yul\":2376:2408   */\n      slt\n        /* \"#utility.yul\":2373:2492   */\n      iszero\n      tag_135\n      jumpi\n        /* \"#utility.yul\":2411:2490   */\n      tag_136\n      tag_73\n      jump\t// in\n    tag_136:\n        /* \"#utility.yul\":2373:2492   */\n    tag_135:\n        /* \"#utility.yul\":2531:2532   */\n      0x00\n        /* \"#utility.yul\":2556:2609   */\n      tag_137\n        /* \"#utility.yul\":2601:2608   */\n      dup7\n        /* \"#utility.yul\":2592:2598   */\n      dup3\n        /* \"#utility.yul\":2581:2590   */\n      dup8\n        /* \"#utility.yul\":2577:2599   */\n      add\n        /* \"#utility.yul\":2556:2609   */\n      tag_78\n      jump\t// in\n    tag_137:\n        /* \"#utility.yul\":2546:2609   */\n      swap4\n      pop\n        /* \"#utility.yul\":2502:2619   */\n      pop\n        /* \"#utility.yul\":2658:2660   */\n      0x20\n        /* \"#utility.yul\":2684:2737   */\n      tag_138\n        /* \"#utility.yul\":2729:2736   */\n      dup7\n        /* \"#utility.yul\":2720:2726   */\n      dup3\n        /* \"#utility.yul\":2709:2718   */\n      dup8\n        /* \"#utility.yul\":2705:2727   */\n      add\n        /* \"#utility.yul\":2684:2737   */\n      tag_81\n      jump\t// in\n    tag_138:\n        /* \"#utility.yul\":2674:2737   */\n      swap3\n      pop\n        /* \"#utility.yul\":2629:2747   */\n      pop\n        /* \"#utility.yul\":2786:2788   */\n      0x40\n        /* \"#utility.yul\":2812:2865   */\n      tag_139\n        /* \"#utility.yul\":2857:2864   */\n      dup7\n        /* \"#utility.yul\":2848:2854   */\n      dup3\n        /* \"#utility.yul\":2837:2846   */\n      dup8\n        /* \"#utility.yul\":2833:2855   */\n      add\n        /* \"#utility.yul\":2812:2865   */\n      tag_81\n      jump\t// in\n    tag_139:\n        /* \"#utility.yul\":2802:2865   */\n      swap2\n      pop\n        /* \"#utility.yul\":2757:2875   */\n      pop\n        /* \"#utility.yul\":2263:2882   */\n      swap3\n      pop\n      swap3\n      pop\n      swap3\n      jump\t// out\n        /* \"#utility.yul\":2888:2948   */\n    tag_84:\n        /* \"#utility.yul\":2916:2919   */\n      0x00\n        /* \"#utility.yul\":2937:2942   */\n      dup2\n        /* \"#utility.yul\":2930:2942   */\n      swap1\n      pop\n        /* \"#utility.yul\":2888:2948   */\n      swap2\n      swap1\n      pop\n      jump\t// out\n        /* \"#utility.yul\":2954:3096   */\n    tag_85:\n        /* \"#utility.yul\":3004:3013   */\n      0x00\n        /* \"#utility.yul\":3037:3090   */\n      tag_142\n        /* \"#utility.yul\":3055:3089   */\n      tag_143\n        /* \"#utility.yul\":3064:3088   */\n      tag_144\n        /* \"#utility.yul\":3082:3087   */\n      dup5\n        /* \"#utility.yul\":3064:3088   */\n      tag_75\n      jump\t// in\n    tag_144:\n        /* \"#utility.yul\":3055:3089   */\n      tag_84\n      jump\t// in\n    tag_143:\n        /* \"#utility.yul\":3037:3090   */\n      tag_75\n      jump\t// in\n    tag_142:\n        /* \"#utility.yul\":3024:3090   */\n      swap1\n      pop\n        /* \"#utility.yul\":2954:3096   */\n      swap2\n      swap1\n      pop\n      jump\t// out\n        /* \"#utility.yul\":3102:3228   */\n    tag_86:\n        /* \"#utility.yul\":3152:3161   */\n      0x00\n        /* \"#utility.yul\":3185:3222   */\n      tag_146\n        /* \"#utility.yul\":3216:3221   */\n      dup3\n        /* \"#utility.yul\":3185:3222   */\n      tag_85\n      jump\t// in\n    tag_146:\n        /* \"#utility.yul\":3172:3222   */\n      swap1\n      pop\n        /* \"#utility.yul\":3102:3228   */\n      swap2\n      swap1\n      pop\n      jump\t// out\n        /* \"#utility.yul\":3234:3373   */\n    tag_87:\n        /* \"#utility.yul\":3297:3306   */\n      0x00\n        /* \"#utility.yul\":3330:3367   */\n      tag_148\n        /* \"#utility.yul\":3361:3366   */\n      dup3\n        /* \"#utility.yul\":3330:3367   */\n      tag_86\n      jump\t// in\n    tag_148:\n        /* \"#utility.yul\":3317:3367   */\n      swap1\n      pop\n        /* \"#utility.yul\":3234:3373   */\n      swap2\n      swap1\n      pop\n      jump\t// out\n        /* \"#utility.yul\":3379:3536   */\n    tag_88:\n        /* \"#utility.yul\":3479:3529   */\n      tag_150\n        /* \"#utility.yul\":3523:3528   */\n      dup2\n        /* \"#utility.yul\":3479:3529   */\n      tag_87\n      jump\t// in\n    tag_150:\n        /* \"#utility.yul\":3474:3477   */\n      dup3\n        /* \"#utility.yul\":3467:3530   */\n      mstore\n        /* \"#utility.yul\":3379:3536   */\n      pop\n      pop\n      jump\t// out\n        /* \"#utility.yul\":3542:3790   */\n    tag_24:\n        /* \"#utility.yul\":3648:3652   */\n      0x00\n        /* \"#utility.yul\":3686:3688   */\n      0x20\n        /* \"#utility.yul\":3675:3684   */\n      dup3\n        /* \"#utility.yul\":3671:3689   */\n      add\n        /* \"#utility.yul\":3663:3689   */\n      swap1\n      pop\n        /* \"#utility.yul\":3699:3783   */\n      tag_152\n        /* \"#utility.yul\":3780:3781   */\n      0x00\n        /* \"#utility.yul\":3769:3778   */\n      dup4\n        /* \"#utility.yul\":3765:3782   */\n      add\n        /* \"#utility.yul\":3756:3762   */\n      dup5\n        /* \"#utility.yul\":3699:3783   */\n      tag_88\n      jump\t// in\n    tag_152:\n        /* \"#utility.yul\":3542:3790   */\n      swap3\n      swap2\n      pop\n      pop\n      jump\t// out\n        /* \"#utility.yul\":3796:3965   */\n    tag_89:\n        /* \"#utility.yul\":3880:3891   */\n      0x00\n        /* \"#utility.yul\":3914:3920   */\n      dup3\n        /* \"#utility.yul\":3909:3912   */\n      dup3\n        /* \"#utility.yul\":3902:3921   */\n      mstore\n        /* \"#utility.yul\":3954:3958   */\n      0x20\n        /* \"#utility.yul\":3949:3952   */\n      dup3\n        /* \"#utility.yul\":3945:3959   */\n      add\n        /* \"#utility.yul\":3930:3959   */\n      swap1\n      pop\n        /* \"#utility.yul\":3796:3965   */\n      swap3\n      swap2\n      pop\n      pop\n      jump\t// out\n        /* \"#utility.yul\":3971:4140   */\n    tag_90:\n        /* \"#utility.yul\":4111:4132   */\n      0x4e6f206572657320656c2076656e6465646f7200000000000000000000000000\n        /* \"#utility.yul\":4107:4108   */\n      0x00\n        /* \"#utility.yul\":4099:4105   */\n      dup3\n        /* \"#utility.yul\":4095:4109   */\n      add\n        /* \"#utility.yul\":4088:4133   */\n      mstore\n        /* \"#utility.yul\":3971:4140   */\n      pop\n      jump\t// out\n        /* \"#utility.yul\":4146:4512   */\n    tag_91:\n        /* \"#utility.yul\":4288:4291   */\n      0x00\n        /* \"#utility.yul\":4309:4376   */\n      tag_156\n        /* \"#utility.yul\":4373:4375   */\n      0x13\n        /* \"#utility.yul\":4368:4371   */\n      dup4\n        /* \"#utility.yul\":4309:4376   */\n      tag_89\n      jump\t// in\n    tag_156:\n        /* \"#utility.yul\":4302:4376   */\n      swap2\n      pop\n        /* \"#utility.yul\":4385:4478   */\n      tag_157\n        /* \"#utility.yul\":4474:4477   */\n      dup3\n        /* \"#utility.yul\":4385:4478   */\n      tag_90\n      jump\t// in\n    tag_157:\n        /* \"#utility.yul\":4503:4505   */\n      0x20\n        /* \"#utility.yul\":4498:4501   */\n      dup3\n        /* \"#utility.yul\":4494:4506   */\n      add\n        /* \"#utility.yul\":4487:4506   */\n      swap1\n      pop\n        /* \"#utility.yul\":4146:4512   */\n      swap2\n      swap1\n      pop\n      jump\t// out\n        /* \"#utility.yul\":4518:4937   */\n    tag_31:\n        /* \"#utility.yul\":4684:4688   */\n      0x00\n        /* \"#utility.yul\":4722:4724   */\n      0x20\n        /* \"#utility.yul\":4711:4720   */\n      dup3\n        /* \"#utility.yul\":4707:4725   */\n      add\n        /* \"#utility.yul\":4699:4725   */\n      swap1\n      pop\n        /* \"#utility.yul\":4771:4780   */\n      dup2\n        /* \"#utility.yul\":4765:4769   */\n      dup2\n        /* \"#utility.yul\":4761:4781   */\n      sub\n        /* \"#utility.yul\":4757:4758   */\n      0x00\n        /* \"#utility.yul\":4746:4755   */\n      dup4\n        /* \"#utility.yul\":4742:4759   */\n      add\n        /* \"#utility.yul\":4735:4782   */\n      mstore\n        /* \"#utility.yul\":4799:4930   */\n      tag_159\n        /* \"#utility.yul\":4925:4929   */\n      dup2\n        /* \"#utility.yul\":4799:4930   */\n      tag_91\n      jump\t// in\n    tag_159:\n        /* \"#utility.yul\":4791:4930   */\n      swap1\n      pop\n        /* \"#utility.yul\":4518:4937   */\n      swap2\n      swap1\n      pop\n      jump\t// out\n        /* \"#utility.yul\":4943:5165   */\n    tag_34:\n        /* \"#utility.yul\":5036:5040   */\n      0x00\n        /* \"#utility.yul\":5074:5076   */\n      0x20\n        /* \"#utility.yul\":5063:5072   */\n      dup3\n        /* \"#utility.yul\":5059:5077   */\n      add\n        /* \"#utility.yul\":5051:5077   */\n      swap1\n      pop\n        /* \"#utility.yul\":5087:5158   */\n      tag_161\n        /* \"#utility.yul\":5155:5156   */\n      0x00\n        /* \"#utility.yul\":5144:5153   */\n      dup4\n        /* \"#utility.yul\":5140:5157   */\n      add\n        /* \"#utility.yul\":5131:5137   */\n      dup5\n        /* \"#utility.yul\":5087:5158   */\n      tag_83\n      jump\t// in\n    tag_161:\n        /* \"#utility.yul\":4943:5165   */\n      swap3\n      swap2\n      pop\n      pop\n      jump\t// out\n        /* \"#utility.yul\":5171:5314   */\n    tag_92:\n        /* \"#utility.yul\":5228:5233   */\n      0x00\n        /* \"#utility.yul\":5259:5265   */\n      dup2\n        /* \"#utility.yul\":5253:5266   */\n      mload\n        /* \"#utility.yul\":5244:5266   */\n      swap1\n      pop\n        /* \"#utility.yul\":5275:5308   */\n      tag_163\n        /* \"#utility.yul\":5302:5307   */\n      dup2\n        /* \"#utility.yul\":5275:5308   */\n      tag_77\n      jump\t// in\n    tag_163:\n        /* \"#utility.yul\":5171:5314   */\n      swap3\n      swap2\n      pop\n      pop\n      jump\t// out\n        /* \"#utility.yul\":5320:5671   */\n    tag_38:\n        /* \"#utility.yul\":5390:5396   */\n      0x00\n        /* \"#utility.yul\":5439:5441   */\n      0x20\n        /* \"#utility.yul\":5427:5436   */\n      dup3\n        /* \"#utility.yul\":5418:5425   */\n      dup5\n        /* \"#utility.yul\":5414:5437   */\n      sub\n        /* \"#utility.yul\":5410:5442   */\n      slt\n        /* \"#utility.yul\":5407:5526   */\n      iszero\n      tag_165\n      jumpi\n        /* \"#utility.yul\":5445:5524   */\n      tag_166\n      tag_73\n      jump\t// in\n    tag_166:\n        /* \"#utility.yul\":5407:5526   */\n    tag_165:\n        /* \"#utility.yul\":5565:5566   */\n      0x00\n        /* \"#utility.yul\":5590:5654   */\n      tag_167\n        /* \"#utility.yul\":5646:5653   */\n      dup5\n        /* \"#utility.yul\":5637:5643   */\n      dup3\n        /* \"#utility.yul\":5626:5635   */\n      dup6\n        /* \"#utility.yul\":5622:5644   */\n      add\n        /* \"#utility.yul\":5590:5654   */\n      tag_92\n      jump\t// in\n    tag_167:\n        /* \"#utility.yul\":5580:5654   */\n      swap2\n      pop\n        /* \"#utility.yul\":5536:5664   */\n      pop\n        /* \"#utility.yul\":5320:5671   */\n      swap3\n      swap2\n      pop\n      pop\n      jump\t// out\n        /* \"#utility.yul\":5677:5849   */\n    tag_93:\n        /* \"#utility.yul\":5817:5841   */\n      0x4e6f206572657320656c2070726f706965746172696f00000000000000000000\n        /* \"#utility.yul\":5813:5814   */\n      0x00\n        /* \"#utility.yul\":5805:5811   */\n      dup3\n        /* \"#utility.yul\":5801:5815   */\n      add\n        /* \"#utility.yul\":5794:5842   */\n      mstore\n        /* \"#utility.yul\":5677:5849   */\n      pop\n      jump\t// out\n        /* \"#utility.yul\":5855:6221   */\n    tag_94:\n        /* \"#utility.yul\":5997:6000   */\n      0x00\n        /* \"#utility.yul\":6018:6085   */\n      tag_170\n        /* \"#utility.yul\":6082:6084   */\n      0x16\n        /* \"#utility.yul\":6077:6080   */\n      dup4\n        /* \"#utility.yul\":6018:6085   */\n      tag_89\n      jump\t// in\n    tag_170:\n        /* \"#utility.yul\":6011:6085   */\n      swap2\n      pop\n        /* \"#utility.yul\":6094:6187   */\n      tag_171\n        /* \"#utility.yul\":6183:6186   */\n      dup3\n        /* \"#utility.yul\":6094:6187   */\n      tag_93\n      jump\t// in\n    tag_171:\n        /* \"#utility.yul\":6212:6214   */\n      0x20\n        /* \"#utility.yul\":6207:6210   */\n      dup3\n        /* \"#utility.yul\":6203:6215   */\n      add\n        /* \"#utility.yul\":6196:6215   */\n      swap1\n      pop\n        /* \"#utility.yul\":5855:6221   */\n      swap2\n      swap1\n      pop\n      jump\t// out\n        /* \"#utility.yul\":6227:6646   */\n    tag_41:\n        /* \"#utility.yul\":6393:6397   */\n      0x00\n        /* \"#utility.yul\":6431:6433   */\n      0x20\n        /* \"#utility.yul\":6420:6429   */\n      dup3\n        /* \"#utility.yul\":6416:6434   */\n      add\n        /* \"#utility.yul\":6408:6434   */\n      swap1\n      pop\n        /* \"#utility.yul\":6480:6489   */\n      dup2\n        /* \"#utility.yul\":6474:6478   */\n      dup2\n        /* \"#utility.yul\":6470:6490   */\n      sub\n        /* \"#utility.yul\":6466:6467   */\n      0x00\n        /* \"#utility.yul\":6455:6464   */\n      dup4\n        /* \"#utility.yul\":6451:6468   */\n      add\n        /* \"#utility.yul\":6444:6491   */\n      mstore\n        /* \"#utility.yul\":6508:6639   */\n      tag_173\n        /* \"#utility.yul\":6634:6638   */\n      dup2\n        /* \"#utility.yul\":6508:6639   */\n      tag_94\n      jump\t// in\n    tag_173:\n        /* \"#utility.yul\":6500:6639   */\n      swap1\n      pop\n        /* \"#utility.yul\":6227:6646   */\n      swap2\n      swap1\n      pop\n      jump\t// out\n        /* \"#utility.yul\":6652:6984   */\n    tag_48:\n        /* \"#utility.yul\":6773:6777   */\n      0x00\n        /* \"#utility.yul\":6811:6813   */\n      0x40\n        /* \"#utility.yul\":6800:6809   */\n      dup3\n        /* \"#utility.yul\":6796:6814   */\n      add\n        /* \"#utility.yul\":6788:6814   */\n      swap1\n      pop\n        /* \"#utility.yul\":6824:6895   */\n      tag_175\n        /* \"#utility.yul\":6892:6893   */\n      0x00\n        /* \"#utility.yul\":6881:6890   */\n      dup4\n        /* \"#utility.yul\":6877:6894   */\n      add\n        /* \"#utility.yul\":6868:6874   */\n      dup6\n        /* \"#utility.yul\":6824:6895   */\n      tag_82\n      jump\t// in\n    tag_175:\n        /* \"#utility.yul\":6905:6977   */\n      tag_176\n        /* \"#utility.yul\":6973:6975   */\n      0x20\n        /* \"#utility.yul\":6962:6971   */\n      dup4\n        /* \"#utility.yul\":6958:6976   */\n      add\n        /* \"#utility.yul\":6949:6955   */\n      dup5\n        /* \"#utility.yul\":6905:6977   */\n      tag_82\n      jump\t// in\n    tag_176:\n        /* \"#utility.yul\":6652:6984   */\n      swap4\n      swap3\n      pop\n      pop\n      pop\n      jump\t// out\n        /* \"#utility.yul\":6990:7080   */\n    tag_95:\n        /* \"#utility.yul\":7024:7031   */\n      0x00\n        /* \"#utility.yul\":7067:7072   */\n      dup2\n        /* \"#utility.yul\":7060:7073   */\n      iszero\n        /* \"#utility.yul\":7053:7074   */\n      iszero\n        /* \"#utility.yul\":7042:7074   */\n      swap1\n      pop\n        /* \"#utility.yul\":6990:7080   */\n      swap2\n      swap1\n      pop\n      jump\t// out\n        /* \"#utility.yul\":7086:7202   */\n    tag_96:\n        /* \"#utility.yul\":7156:7177   */\n      tag_179\n        /* \"#utility.yul\":7171:7176   */\n      dup2\n        /* \"#utility.yul\":7156:7177   */\n      tag_95\n      jump\t// in\n    tag_179:\n        /* \"#utility.yul\":7149:7154   */\n      dup2\n        /* \"#utility.yul\":7146:7178   */\n      eq\n        /* \"#utility.yul\":7136:7196   */\n      tag_180\n      jumpi\n        /* \"#utility.yul\":7192:7193   */\n      0x00\n        /* \"#utility.yul\":7189:7190   */\n      dup1\n        /* \"#utility.yul\":7182:7194   */\n      revert\n        /* \"#utility.yul\":7136:7196   */\n    tag_180:\n        /* \"#utility.yul\":7086:7202   */\n      pop\n      jump\t// out\n        /* \"#utility.yul\":7208:7345   */\n    tag_97:\n        /* \"#utility.yul\":7262:7267   */\n      0x00\n        /* \"#utility.yul\":7293:7299   */\n      dup2\n        /* \"#utility.yul\":7287:7300   */\n      mload\n        /* \"#utility.yul\":7278:7300   */\n      swap1\n      pop\n        /* \"#utility.yul\":7309:7339   */\n      tag_182\n        /* \"#utility.yul\":7333:7338   */\n      dup2\n        /* \"#utility.yul\":7309:7339   */\n      tag_96\n      jump\t// in\n    tag_182:\n        /* \"#utility.yul\":7208:7345   */\n      swap3\n      swap2\n      pop\n      pop\n      jump\t// out\n        /* \"#utility.yul\":7351:7696   */\n    tag_52:\n        /* \"#utility.yul\":7418:7424   */\n      0x00\n        /* \"#utility.yul\":7467:7469   */\n      0x20\n        /* \"#utility.yul\":7455:7464   */\n      dup3\n        /* \"#utility.yul\":7446:7453   */\n      dup5\n        /* \"#utility.yul\":7442:7465   */\n      sub\n        /* \"#utility.yul\":7438:7470   */\n      slt\n        /* \"#utility.yul\":7435:7554   */\n      iszero\n      tag_184\n      jumpi\n        /* \"#utility.yul\":7473:7552   */\n      tag_185\n      tag_73\n      jump\t// in\n    tag_185:\n        /* \"#utility.yul\":7435:7554   */\n    tag_184:\n        /* \"#utility.yul\":7593:7594   */\n      0x00\n        /* \"#utility.yul\":7618:7679   */\n      tag_186\n        /* \"#utility.yul\":7671:7678   */\n      dup5\n        /* \"#utility.yul\":7662:7668   */\n      dup3\n        /* \"#utility.yul\":7651:7660   */\n      dup6\n        /* \"#utility.yul\":7647:7669   */\n      add\n        /* \"#utility.yul\":7618:7679   */\n      tag_97\n      jump\t// in\n    tag_186:\n        /* \"#utility.yul\":7608:7679   */\n      swap2\n      pop\n        /* \"#utility.yul\":7564:7689   */\n      pop\n        /* \"#utility.yul\":7351:7696   */\n      swap3\n      swap2\n      pop\n      pop\n      jump\t// out\n        /* \"#utility.yul\":7702:7875   */\n    tag_98:\n        /* \"#utility.yul\":7842:7867   */\n      0x4d61726b6574706c616365206e6f206170726f6261646f000000000000000000\n        /* \"#utility.yul\":7838:7839   */\n      0x00\n        /* \"#utility.yul\":7830:7836   */\n      dup3\n        /* \"#utility.yul\":7826:7840   */\n      add\n        /* \"#utility.yul\":7819:7868   */\n      mstore\n        /* \"#utility.yul\":7702:7875   */\n      pop\n      jump\t// out\n        /* \"#utility.yul\":7881:8247   */\n    tag_99:\n        /* \"#utility.yul\":8023:8026   */\n      0x00\n        /* \"#utility.yul\":8044:8111   */\n      tag_189\n        /* \"#utility.yul\":8108:8110   */\n      0x17\n        /* \"#utility.yul\":8103:8106   */\n      dup4\n        /* \"#utility.yul\":8044:8111   */\n      tag_89\n      jump\t// in\n    tag_189:\n        /* \"#utility.yul\":8037:8111   */\n      swap2\n      pop\n        /* \"#utility.yul\":8120:8213   */\n      tag_190\n        /* \"#utility.yul\":8209:8212   */\n      dup3\n        /* \"#utility.yul\":8120:8213   */\n      tag_98\n      jump\t// in\n    tag_190:\n        /* \"#utility.yul\":8238:8240   */\n      0x20\n        /* \"#utility.yul\":8233:8236   */\n      dup3\n        /* \"#utility.yul\":8229:8241   */\n      add\n        /* \"#utility.yul\":8222:8241   */\n      swap1\n      pop\n        /* \"#utility.yul\":7881:8247   */\n      swap2\n      swap1\n      pop\n      jump\t// out\n        /* \"#utility.yul\":8253:8672   */\n    tag_55:\n        /* \"#utility.yul\":8419:8423   */\n      0x00\n        /* \"#utility.yul\":8457:8459   */\n      0x20\n        /* \"#utility.yul\":8446:8455   */\n      dup3\n        /* \"#utility.yul\":8442:8460   */\n      add\n        /* \"#utility.yul\":8434:8460   */\n      swap1\n      pop\n        /* \"#utility.yul\":8506:8515   */\n      dup2\n        /* \"#utility.yul\":8500:8504   */\n      dup2\n        /* \"#utility.yul\":8496:8516   */\n      sub\n        /* \"#utility.yul\":8492:8493   */\n      0x00\n        /* \"#utility.yul\":8481:8490   */\n      dup4\n        /* \"#utility.yul\":8477:8494   */\n      add\n        /* \"#utility.yul\":8470:8517   */\n      mstore\n        /* \"#utility.yul\":8534:8665   */\n      tag_192\n        /* \"#utility.yul\":8660:8664   */\n      dup2\n        /* \"#utility.yul\":8534:8665   */\n      tag_99\n      jump\t// in\n    tag_192:\n        /* \"#utility.yul\":8526:8665   */\n      swap1\n      pop\n        /* \"#utility.yul\":8253:8672   */\n      swap2\n      swap1\n      pop\n      jump\t// out\n        /* \"#utility.yul\":8678:8842   */\n    tag_100:\n        /* \"#utility.yul\":8818:8834   */\n      0x4e4654206e6f206c69737461646f000000000000000000000000000000000000\n        /* \"#utility.yul\":8814:8815   */\n      0x00\n        /* \"#utility.yul\":8806:8812   */\n      dup3\n        /* \"#utility.yul\":8802:8816   */\n      add\n        /* \"#utility.yul\":8795:8835   */\n      mstore\n        /* \"#utility.yul\":8678:8842   */\n      pop\n      jump\t// out\n        /* \"#utility.yul\":8848:9214   */\n    tag_101:\n        /* \"#utility.yul\":8990:8993   */\n      0x00\n        /* \"#utility.yul\":9011:9078   */\n      tag_195\n        /* \"#utility.yul\":9075:9077   */\n      0x0e\n        /* \"#utility.yul\":9070:9073   */\n      dup4\n        /* \"#utility.yul\":9011:9078   */\n      tag_89\n      jump\t// in\n    tag_195:\n        /* \"#utility.yul\":9004:9078   */\n      swap2\n      pop\n        /* \"#utility.yul\":9087:9180   */\n      tag_196\n        /* \"#utility.yul\":9176:9179   */\n      dup3\n        /* \"#utility.yul\":9087:9180   */\n      tag_100\n      jump\t// in\n    tag_196:\n        /* \"#utility.yul\":9205:9207   */\n      0x20\n        /* \"#utility.yul\":9200:9203   */\n      dup3\n        /* \"#utility.yul\":9196:9208   */\n      add\n        /* \"#utility.yul\":9189:9208   */\n      swap1\n      pop\n        /* \"#utility.yul\":8848:9214   */\n      swap2\n      swap1\n      pop\n      jump\t// out\n        /* \"#utility.yul\":9220:9639   */\n    tag_59:\n        /* \"#utility.yul\":9386:9390   */\n      0x00\n        /* \"#utility.yul\":9424:9426   */\n      0x20\n        /* \"#utility.yul\":9413:9422   */\n      dup3\n        /* \"#utility.yul\":9409:9427   */\n      add\n        /* \"#utility.yul\":9401:9427   */\n      swap1\n      pop\n        /* \"#utility.yul\":9473:9482   */\n      dup2\n        /* \"#utility.yul\":9467:9471   */\n      dup2\n        /* \"#utility.yul\":9463:9483   */\n      sub\n        /* \"#utility.yul\":9459:9460   */\n      0x00\n        /* \"#utility.yul\":9448:9457   */\n      dup4\n        /* \"#utility.yul\":9444:9461   */\n      add\n        /* \"#utility.yul\":9437:9484   */\n      mstore\n        /* \"#utility.yul\":9501:9632   */\n      tag_198\n        /* \"#utility.yul\":9627:9631   */\n      dup2\n        /* \"#utility.yul\":9501:9632   */\n      tag_101\n      jump\t// in\n    tag_198:\n        /* \"#utility.yul\":9493:9632   */\n      swap1\n      pop\n        /* \"#utility.yul\":9220:9639   */\n      swap2\n      swap1\n      pop\n      jump\t// out\n        /* \"#utility.yul\":9645:10087   */\n    tag_61:\n        /* \"#utility.yul\":9794:9798   */\n      0x00\n        /* \"#utility.yul\":9832:9834   */\n      0x60\n        /* \"#utility.yul\":9821:9830   */\n      dup3\n        /* \"#utility.yul\":9817:9835   */\n      add\n        /* \"#utility.yul\":9809:9835   */\n      swap1\n      pop\n        /* \"#utility.yul\":9845:9916   */\n      tag_200\n        /* \"#utility.yul\":9913:9914   */\n      0x00\n        /* \"#utility.yul\":9902:9911   */\n      dup4\n        /* \"#utility.yul\":9898:9915   */\n      add\n        /* \"#utility.yul\":9889:9895   */\n      dup7\n        /* \"#utility.yul\":9845:9916   */\n      tag_82\n      jump\t// in\n    tag_200:\n        /* \"#utility.yul\":9926:9998   */\n      tag_201\n        /* \"#utility.yul\":9994:9996   */\n      0x20\n        /* \"#utility.yul\":9983:9992   */\n      dup4\n        /* \"#utility.yul\":9979:9997   */\n      add\n        /* \"#utility.yul\":9970:9976   */\n      dup6\n        /* \"#utility.yul\":9926:9998   */\n      tag_82\n      jump\t// in\n    tag_201:\n        /* \"#utility.yul\":10008:10080   */\n      tag_202\n        /* \"#utility.yul\":10076:10078   */\n      0x40\n        /* \"#utility.yul\":10065:10074   */\n      dup4\n        /* \"#utility.yul\":10061:10079   */\n      add\n        /* \"#utility.yul\":10052:10058   */\n      dup5\n        /* \"#utility.yul\":10008:10080   */\n      tag_83\n      jump\t// in\n    tag_202:\n        /* \"#utility.yul\":9645:10087   */\n      swap5\n      swap4\n      pop\n      pop\n      pop\n      pop\n      jump\t// out\n        /* \"#utility.yul\":10093:10274   */\n    tag_102:\n        /* \"#utility.yul\":10233:10266   */\n      0x5472616e73666572656e63696120646520746f6b656e732066616c6c69646100\n        /* \"#utility.yul\":10229:10230   */\n      0x00\n        /* \"#utility.yul\":10221:10227   */\n      dup3\n        /* \"#utility.yul\":10217:10231   */\n      add\n        /* \"#utility.yul\":10210:10267   */\n      mstore\n        /* \"#utility.yul\":10093:10274   */\n      pop\n      jump\t// out\n        /* \"#utility.yul\":10280:10646   */\n    tag_103:\n        /* \"#utility.yul\":10422:10425   */\n      0x00\n        /* \"#utility.yul\":10443:10510   */\n      tag_205\n        /* \"#utility.yul\":10507:10509   */\n      0x1f\n        /* \"#utility.yul\":10502:10505   */\n      dup4\n        /* \"#utility.yul\":10443:10510   */\n      tag_89\n      jump\t// in\n    tag_205:\n        /* \"#utility.yul\":10436:10510   */\n      swap2\n      pop\n        /* \"#utility.yul\":10519:10612   */\n      tag_206\n        /* \"#utility.yul\":10608:10611   */\n      dup3\n        /* \"#utility.yul\":10519:10612   */\n      tag_102\n      jump\t// in\n    tag_206:\n        /* \"#utility.yul\":10637:10639   */\n      0x20\n        /* \"#utility.yul\":10632:10635   */\n      dup3\n        /* \"#utility.yul\":10628:10640   */\n      add\n        /* \"#utility.yul\":10621:10640   */\n      swap1\n      pop\n        /* \"#utility.yul\":10280:10646   */\n      swap2\n      swap1\n      pop\n      jump\t// out\n        /* \"#utility.yul\":10652:11071   */\n    tag_67:\n        /* \"#utility.yul\":10818:10822   */\n      0x00\n        /* \"#utility.yul\":10856:10858   */\n      0x20\n        /* \"#utility.yul\":10845:10854   */\n      dup3\n        /* \"#utility.yul\":10841:10859   */\n      add\n        /* \"#utility.yul\":10833:10859   */\n      swap1\n      pop\n        /* \"#utility.yul\":10905:10914   */\n      dup2\n        /* \"#utility.yul\":10899:10903   */\n      dup2\n        /* \"#utility.yul\":10895:10915   */\n      sub\n        /* \"#utility.yul\":10891:10892   */\n      0x00\n        /* \"#utility.yul\":10880:10889   */\n      dup4\n        /* \"#utility.yul\":10876:10893   */\n      add\n        /* \"#utility.yul\":10869:10916   */\n      mstore\n        /* \"#utility.yul\":10933:11064   */\n      tag_208\n        /* \"#utility.yul\":11059:11063   */\n      dup2\n        /* \"#utility.yul\":10933:11064   */\n      tag_103\n      jump\t// in\n    tag_208:\n        /* \"#utility.yul\":10925:11064   */\n      swap1\n      pop\n        /* \"#utility.yul\":10652:11071   */\n      swap2\n      swap1\n      pop\n      jump\t// out\n\n    auxdata: 0xa2646970667358221220715769b473516d8532413e2d4b94629eff3703f0f4b4c273013ba7970d412efb64736f6c634300081a0033\n}\n",
				"bytecode": {
					"linkReferences": {},
					"object": "608060405234801561001057600080fd5b50604051610ff2380380610ff2833981810160405281019061003291906100dc565b80600160006101000a81548173ffffffffffffffffffffffffffffffffffffffff021916908373ffffffffffffffffffffffffffffffffffffffff16021790555050610109565b600080fd5b600073ffffffffffffffffffffffffffffffffffffffff82169050919050565b60006100a98261007e565b9050919050565b6100b98161009e565b81146100c457600080fd5b50565b6000815190506100d6816100b0565b92915050565b6000602082840312156100f2576100f1610079565b5b6000610100848285016100c7565b91505092915050565b610eda806101186000396000f3fe608060405234801561001057600080fd5b50600436106100565760003560e01c806207df301461005b578063890c96841461008c578063c413cc90146100a8578063d42bb778146100c4578063f998c146146100e2575b600080fd5b61007560048036038101906100709190610a01565b6100fe565b604051610083929190610a5f565b60405180910390f35b6100a660048036038101906100a19190610a01565b61014f565b005b6100c260048036038101906100bd9190610a88565b610305565b005b6100cc61062f565b6040516100d99190610b3a565b60405180910390f35b6100fc60048036038101906100f79190610a01565b610655565b005b6000602052816000526040600020602052806000526040600020600091509150508060000160009054906101000a900473ffffffffffffffffffffffffffffffffffffffff16908060010154905082565b60008060008473ffffffffffffffffffffffffffffffffffffffff1673ffffffffffffffffffffffffffffffffffffffff16815260200190815260200160002060008381526020019081526020016000206040518060400160405290816000820160009054906101000a900473ffffffffffffffffffffffffffffffffffffffff1673ffffffffffffffffffffffffffffffffffffffff1673ffffffffffffffffffffffffffffffffffffffff16815260200160018201548152505090503373ffffffffffffffffffffffffffffffffffffffff16816000015173ffffffffffffffffffffffffffffffffffffffff161461027f576040517f08c379a000000000000000000000000000000000000000000000000000000000815260040161027690610bb2565b60405180910390fd5b6000808473ffffffffffffffffffffffffffffffffffffffff1673ffffffffffffffffffffffffffffffffffffffff1681526020019081526020016000206000838152602001908152602001600020600080820160006101000a81549073ffffffffffffffffffffffffffffffffffffffff021916905560018201600090555050505050565b60008390503373ffffffffffffffffffffffffffffffffffffffff168173ffffffffffffffffffffffffffffffffffffffff16636352211e856040518263ffffffff1660e01b815260040161035a9190610bd2565b602060405180830381865afa158015610377573d6000803e3d6000fd5b505050506040513d601f19601f8201168201806040525081019061039b9190610c02565b73ffffffffffffffffffffffffffffffffffffffff16146103f1576040517f08c379a00000000000000000000000000000000000000000000000000000000081526004016103e890610c7b565b60405180910390fd5b3073ffffffffffffffffffffffffffffffffffffffff168173ffffffffffffffffffffffffffffffffffffffff1663081812fc856040518263ffffffff1660e01b81526004016104419190610bd2565b602060405180830381865afa15801561045e573d6000803e3d6000fd5b505050506040513d601f19601f820116820180604052508101906104829190610c02565b73ffffffffffffffffffffffffffffffffffffffff16148061051c57508073ffffffffffffffffffffffffffffffffffffffff1663e985e9c533306040518363ffffffff1660e01b81526004016104da929190610c9b565b602060405180830381865afa1580156104f7573d6000803e3d6000fd5b505050506040513d601f19601f8201168201806040525081019061051b9190610cfc565b5b61055b576040517f08c379a000000000000000000000000000000000000000000000000000000000815260040161055290610d75565b60405180910390fd5b60405180604001604052803373ffffffffffffffffffffffffffffffffffffffff168152602001838152506000808673ffffffffffffffffffffffffffffffffffffffff1673ffffffffffffffffffffffffffffffffffffffff168152602001908152602001600020600085815260200190815260200160002060008201518160000160006101000a81548173ffffffffffffffffffffffffffffffffffffffff021916908373ffffffffffffffffffffffffffffffffffffffff1602179055506020820151816001015590505050505050565b600160009054906101000a900473ffffffffffffffffffffffffffffffffffffffff1681565b60008060008473ffffffffffffffffffffffffffffffffffffffff1673ffffffffffffffffffffffffffffffffffffffff16815260200190815260200160002060008381526020019081526020016000206040518060400160405290816000820160009054906101000a900473ffffffffffffffffffffffffffffffffffffffff1673ffffffffffffffffffffffffffffffffffffffff1673ffffffffffffffffffffffffffffffffffffffff1681526020016001820154815250509050600073ffffffffffffffffffffffffffffffffffffffff16816000015173ffffffffffffffffffffffffffffffffffffffff1603610786576040517f08c379a000000000000000000000000000000000000000000000000000000000815260040161077d90610de1565b60405180910390fd5b600160009054906101000a900473ffffffffffffffffffffffffffffffffffffffff1673ffffffffffffffffffffffffffffffffffffffff166323b872dd33836000015184602001516040518463ffffffff1660e01b81526004016107ed93929190610e01565b6020604051808303816000875af115801561080c573d6000803e3d6000fd5b505050506040513d601f19601f820116820180604052508101906108309190610cfc565b61086f576040517f08c379a000000000000000000000000000000000000000000000000000000000815260040161086690610e84565b60405180910390fd5b8273ffffffffffffffffffffffffffffffffffffffff166323b872dd826000015133856040518463ffffffff1660e01b81526004016108b093929190610e01565b600060405180830381600087803b1580156108ca57600080fd5b505af11580156108de573d6000803e3d6000fd5b505050506000808473ffffffffffffffffffffffffffffffffffffffff1673ffffffffffffffffffffffffffffffffffffffff1681526020019081526020016000206000838152602001908152602001600020600080820160006101000a81549073ffffffffffffffffffffffffffffffffffffffff021916905560018201600090555050505050565b600080fd5b600073ffffffffffffffffffffffffffffffffffffffff82169050919050565b60006109988261096d565b9050919050565b6109a88161098d565b81146109b357600080fd5b50565b6000813590506109c58161099f565b92915050565b6000819050919050565b6109de816109cb565b81146109e957600080fd5b50565b6000813590506109fb816109d5565b92915050565b60008060408385031215610a1857610a17610968565b5b6000610a26858286016109b6565b9250506020610a37858286016109ec565b9150509250929050565b610a4a8161098d565b82525050565b610a59816109cb565b82525050565b6000604082019050610a746000830185610a41565b610a816020830184610a50565b9392505050565b600080600060608486031215610aa157610aa0610968565b5b6000610aaf868287016109b6565b9350506020610ac0868287016109ec565b9250506040610ad1868287016109ec565b9150509250925092565b6000819050919050565b6000610b00610afb610af68461096d565b610adb565b61096d565b9050919050565b6000610b1282610ae5565b9050919050565b6000610b2482610b07565b9050919050565b610b3481610b19565b82525050565b6000602082019050610b4f6000830184610b2b565b92915050565b600082825260208201905092915050565b7f4e6f206572657320656c2076656e6465646f7200000000000000000000000000600082015250565b6000610b9c601383610b55565b9150610ba782610b66565b602082019050919050565b60006020820190508181036000830152610bcb81610b8f565b9050919050565b6000602082019050610be76000830184610a50565b92915050565b600081519050610bfc8161099f565b92915050565b600060208284031215610c1857610c17610968565b5b6000610c2684828501610bed565b91505092915050565b7f4e6f206572657320656c2070726f706965746172696f00000000000000000000600082015250565b6000610c65601683610b55565b9150610c7082610c2f565b602082019050919050565b60006020820190508181036000830152610c9481610c58565b9050919050565b6000604082019050610cb06000830185610a41565b610cbd6020830184610a41565b9392505050565b60008115159050919050565b610cd981610cc4565b8114610ce457600080fd5b50565b600081519050610cf681610cd0565b92915050565b600060208284031215610d1257610d11610968565b5b6000610d2084828501610ce7565b91505092915050565b7f4d61726b6574706c616365206e6f206170726f6261646f000000000000000000600082015250565b6000610d5f601783610b55565b9150610d6a82610d29565b602082019050919050565b60006020820190508181036000830152610d8e81610d52565b9050919050565b7f4e4654206e6f206c69737461646f000000000000000000000000000000000000600082015250565b6000610dcb600e83610b55565b9150610dd682610d95565b602082019050919050565b60006020820190508181036000830152610dfa81610dbe565b9050919050565b6000606082019050610e166000830186610a41565b610e236020830185610a41565b610e306040830184610a50565b949350505050565b7f5472616e73666572656e63696120646520746f6b656e732066616c6c69646100600082015250565b6000610e6e601f83610b55565b9150610e7982610e38565b602082019050919050565b60006020820190508181036000830152610e9d81610e61565b905091905056fea2646970667358221220715769b473516d8532413e2d4b94629eff3703f0f4b4c273013ba7970d412efb64736f6c634300081a0033",
					"opcodes": "PUSH1 0x80 PUSH1 0x40 MSTORE CALLVALUE DUP1 ISZERO PUSH2 0x10 JUMPI PUSH1 0x0 DUP1 REVERT JUMPDEST POP PUSH1 0x40 MLOAD PUSH2 0xFF2 CODESIZE SUB DUP1 PUSH2 0xFF2 DUP4 CODECOPY DUP2 DUP2 ADD PUSH1 0x40 MSTORE DUP2 ADD SWAP1 PUSH2 0x32 SWAP2 SWAP1 PUSH2 0xDC JUMP JUMPDEST DUP1 PUSH1 0x1 PUSH1 0x0 PUSH2 0x100 EXP DUP2 SLOAD DUP2 PUSH20 0xFFFFFFFFFFFFFFFFFFFFFFFFFFFFFFFFFFFFFFFF MUL NOT AND SWAP1 DUP4 PUSH20 0xFFFFFFFFFFFFFFFFFFFFFFFFFFFFFFFFFFFFFFFF AND MUL OR SWAP1 SSTORE POP POP PUSH2 0x109 JUMP JUMPDEST PUSH1 0x0 DUP1 REVERT JUMPDEST PUSH1 0x0 PUSH20 0xFFFFFFFFFFFFFFFFFFFFFFFFFFFFFFFFFFFFFFFF DUP3 AND SWAP1 POP SWAP2 SWAP1 POP JUMP JUMPDEST PUSH1 0x0 PUSH2 0xA9 DUP3 PUSH2 0x7E JUMP JUMPDEST SWAP1 POP SWAP2 SWAP1 POP JUMP JUMPDEST PUSH2 0xB9 DUP2 PUSH2 0x9E JUMP JUMPDEST DUP2 EQ PUSH2 0xC4 JUMPI PUSH1 0x0 DUP1 REVERT JUMPDEST POP JUMP JUMPDEST PUSH1 0x0 DUP2 MLOAD SWAP1 POP PUSH2 0xD6 DUP2 PUSH2 0xB0 JUMP JUMPDEST SWAP3 SWAP2 POP POP JUMP JUMPDEST PUSH1 0x0 PUSH1 0x20 DUP3 DUP5 SUB SLT ISZERO PUSH2 0xF2 JUMPI PUSH2 0xF1 PUSH2 0x79 JUMP JUMPDEST JUMPDEST PUSH1 0x0 PUSH2 0x100 DUP5 DUP3 DUP6 ADD PUSH2 0xC7 JUMP JUMPDEST SWAP2 POP POP SWAP3 SWAP2 POP POP JUMP JUMPDEST PUSH2 0xEDA DUP1 PUSH2 0x118 PUSH1 0x0 CODECOPY PUSH1 0x0 RETURN INVALID PUSH1 0x80 PUSH1 0x40 MSTORE CALLVALUE DUP1 ISZERO PUSH2 0x10 JUMPI PUSH1 0x0 DUP1 REVERT JUMPDEST POP PUSH1 0x4 CALLDATASIZE LT PUSH2 0x56 JUMPI PUSH1 0x0 CALLDATALOAD PUSH1 0xE0 SHR DUP1 PUSH3 0x7DF30 EQ PUSH2 0x5B JUMPI DUP1 PUSH4 0x890C9684 EQ PUSH2 0x8C JUMPI DUP1 PUSH4 0xC413CC90 EQ PUSH2 0xA8 JUMPI DUP1 PUSH4 0xD42BB778 EQ PUSH2 0xC4 JUMPI DUP1 PUSH4 0xF998C146 EQ PUSH2 0xE2 JUMPI JUMPDEST PUSH1 0x0 DUP1 REVERT JUMPDEST PUSH2 0x75 PUSH1 0x4 DUP1 CALLDATASIZE SUB DUP2 ADD SWAP1 PUSH2 0x70 SWAP2 SWAP1 PUSH2 0xA01 JUMP JUMPDEST PUSH2 0xFE JUMP JUMPDEST PUSH1 0x40 MLOAD PUSH2 0x83 SWAP3 SWAP2 SWAP1 PUSH2 0xA5F JUMP JUMPDEST PUSH1 0x40 MLOAD DUP1 SWAP2 SUB SWAP1 RETURN JUMPDEST PUSH2 0xA6 PUSH1 0x4 DUP1 CALLDATASIZE SUB DUP2 ADD SWAP1 PUSH2 0xA1 SWAP2 SWAP1 PUSH2 0xA01 JUMP JUMPDEST PUSH2 0x14F JUMP JUMPDEST STOP JUMPDEST PUSH2 0xC2 PUSH1 0x4 DUP1 CALLDATASIZE SUB DUP2 ADD SWAP1 PUSH2 0xBD SWAP2 SWAP1 PUSH2 0xA88 JUMP JUMPDEST PUSH2 0x305 JUMP JUMPDEST STOP JUMPDEST PUSH2 0xCC PUSH2 0x62F JUMP JUMPDEST PUSH1 0x40 MLOAD PUSH2 0xD9 SWAP2 SWAP1 PUSH2 0xB3A JUMP JUMPDEST PUSH1 0x40 MLOAD DUP1 SWAP2 SUB SWAP1 RETURN JUMPDEST PUSH2 0xFC PUSH1 0x4 DUP1 CALLDATASIZE SUB DUP2 ADD SWAP1 PUSH2 0xF7 SWAP2 SWAP1 PUSH2 0xA01 JUMP JUMPDEST PUSH2 0x655 JUMP JUMPDEST STOP JUMPDEST PUSH1 0x0 PUSH1 0x20 MSTORE DUP2 PUSH1 0x0 MSTORE PUSH1 0x40 PUSH1 0x0 KECCAK256 PUSH1 0x20 MSTORE DUP1 PUSH1 0x0 MSTORE PUSH1 0x40 PUSH1 0x0 KECCAK256 PUSH1 0x0 SWAP2 POP SWAP2 POP POP DUP1 PUSH1 0x0 ADD PUSH1 0x0 SWAP1 SLOAD SWAP1 PUSH2 0x100 EXP SWAP1 DIV PUSH20 0xFFFFFFFFFFFFFFFFFFFFFFFFFFFFFFFFFFFFFFFF AND SWAP1 DUP1 PUSH1 0x1 ADD SLOAD SWAP1 POP DUP3 JUMP JUMPDEST PUSH1 0x0 DUP1 PUSH1 0x0 DUP5 PUSH20 0xFFFFFFFFFFFFFFFFFFFFFFFFFFFFFFFFFFFFFFFF AND PUSH20 0xFFFFFFFFFFFFFFFFFFFFFFFFFFFFFFFFFFFFFFFF AND DUP2 MSTORE PUSH1 0x20 ADD SWAP1 DUP2 MSTORE PUSH1 0x20 ADD PUSH1 0x0 KECCAK256 PUSH1 0x0 DUP4 DUP2 MSTORE PUSH1 0x20 ADD SWAP1 DUP2 MSTORE PUSH1 0x20 ADD PUSH1 0x0 KECCAK256 PUSH1 0x40 MLOAD DUP1 PUSH1 0x40 ADD PUSH1 0x40 MSTORE SWAP1 DUP2 PUSH1 0x0 DUP3 ADD PUSH1 0x0 SWAP1 SLOAD SWAP1 PUSH2 0x100 EXP SWAP1 DIV PUSH20 0xFFFFFFFFFFFFFFFFFFFFFFFFFFFFFFFFFFFFFFFF AND PUSH20 0xFFFFFFFFFFFFFFFFFFFFFFFFFFFFFFFFFFFFFFFF AND PUSH20 0xFFFFFFFFFFFFFFFFFFFFFFFFFFFFFFFFFFFFFFFF AND DUP2 MSTORE PUSH1 0x20 ADD PUSH1 0x1 DUP3 ADD SLOAD DUP2 MSTORE POP POP SWAP1 POP CALLER PUSH20 0xFFFFFFFFFFFFFFFFFFFFFFFFFFFFFFFFFFFFFFFF AND DUP2 PUSH1 0x0 ADD MLOAD PUSH20 0xFFFFFFFFFFFFFFFFFFFFFFFFFFFFFFFFFFFFFFFF AND EQ PUSH2 0x27F JUMPI PUSH1 0x40 MLOAD PUSH32 0x8C379A000000000000000000000000000000000000000000000000000000000 DUP2 MSTORE PUSH1 0x4 ADD PUSH2 0x276 SWAP1 PUSH2 0xBB2 JUMP JUMPDEST PUSH1 0x40 MLOAD DUP1 SWAP2 SUB SWAP1 REVERT JUMPDEST PUSH1 0x0 DUP1 DUP5 PUSH20 0xFFFFFFFFFFFFFFFFFFFFFFFFFFFFFFFFFFFFFFFF AND PUSH20 0xFFFFFFFFFFFFFFFFFFFFFFFFFFFFFFFFFFFFFFFF AND DUP2 MSTORE PUSH1 0x20 ADD SWAP1 DUP2 MSTORE PUSH1 0x20 ADD PUSH1 0x0 KECCAK256 PUSH1 0x0 DUP4 DUP2 MSTORE PUSH1 0x20 ADD SWAP1 DUP2 MSTORE PUSH1 0x20 ADD PUSH1 0x0 KECCAK256 PUSH1 0x0 DUP1 DUP3 ADD PUSH1 0x0 PUSH2 0x100 EXP DUP2 SLOAD SWAP1 PUSH20 0xFFFFFFFFFFFFFFFFFFFFFFFFFFFFFFFFFFFFFFFF MUL NOT AND SWAP1 SSTORE PUSH1 0x1 DUP3 ADD PUSH1 0x0 SWAP1 SSTORE POP POP POP POP POP JUMP JUMPDEST PUSH1 0x0 DUP4 SWAP1 POP CALLER PUSH20 0xFFFFFFFFFFFFFFFFFFFFFFFFFFFFFFFFFFFFFFFF AND DUP2 PUSH20 0xFFFFFFFFFFFFFFFFFFFFFFFFFFFFFFFFFFFFFFFF AND PUSH4 0x6352211E DUP6 PUSH1 0x40 MLOAD DUP3 PUSH4 0xFFFFFFFF AND PUSH1 0xE0 SHL DUP2 MSTORE PUSH1 0x4 ADD PUSH2 0x35A SWAP2 SWAP1 PUSH2 0xBD2 JUMP JUMPDEST PUSH1 0x20 PUSH1 0x40 MLOAD DUP1 DUP4 SUB DUP2 DUP7 GAS STATICCALL ISZERO DUP1 ISZERO PUSH2 0x377 JUMPI RETURNDATASIZE PUSH1 0x0 DUP1 RETURNDATACOPY RETURNDATASIZE PUSH1 0x0 REVERT JUMPDEST POP POP POP POP PUSH1 0x40 MLOAD RETURNDATASIZE PUSH1 0x1F NOT PUSH1 0x1F DUP3 ADD AND DUP3 ADD DUP1 PUSH1 0x40 MSTORE POP DUP2 ADD SWAP1 PUSH2 0x39B SWAP2 SWAP1 PUSH2 0xC02 JUMP JUMPDEST PUSH20 0xFFFFFFFFFFFFFFFFFFFFFFFFFFFFFFFFFFFFFFFF AND EQ PUSH2 0x3F1 JUMPI PUSH1 0x40 MLOAD PUSH32 0x8C379A000000000000000000000000000000000000000000000000000000000 DUP2 MSTORE PUSH1 0x4 ADD PUSH2 0x3E8 SWAP1 PUSH2 0xC7B JUMP JUMPDEST PUSH1 0x40 MLOAD DUP1 SWAP2 SUB SWAP1 REVERT JUMPDEST ADDRESS PUSH20 0xFFFFFFFFFFFFFFFFFFFFFFFFFFFFFFFFFFFFFFFF AND DUP2 PUSH20 0xFFFFFFFFFFFFFFFFFFFFFFFFFFFFFFFFFFFFFFFF AND PUSH4 0x81812FC DUP6 PUSH1 0x40 MLOAD DUP3 PUSH4 0xFFFFFFFF AND PUSH1 0xE0 SHL DUP2 MSTORE PUSH1 0x4 ADD PUSH2 0x441 SWAP2 SWAP1 PUSH2 0xBD2 JUMP JUMPDEST PUSH1 0x20 PUSH1 0x40 MLOAD DUP1 DUP4 SUB DUP2 DUP7 GAS STATICCALL ISZERO DUP1 ISZERO PUSH2 0x45E JUMPI RETURNDATASIZE PUSH1 0x0 DUP1 RETURNDATACOPY RETURNDATASIZE PUSH1 0x0 REVERT JUMPDEST POP POP POP POP PUSH1 0x40 MLOAD RETURNDATASIZE PUSH1 0x1F NOT PUSH1 0x1F DUP3 ADD AND DUP3 ADD DUP1 PUSH1 0x40 MSTORE POP DUP2 ADD SWAP1 PUSH2 0x482 SWAP2 SWAP1 PUSH2 0xC02 JUMP JUMPDEST PUSH20 0xFFFFFFFFFFFFFFFFFFFFFFFFFFFFFFFFFFFFFFFF AND EQ DUP1 PUSH2 0x51C JUMPI POP DUP1 PUSH20 0xFFFFFFFFFFFFFFFFFFFFFFFFFFFFFFFFFFFFFFFF AND PUSH4 0xE985E9C5 CALLER ADDRESS PUSH1 0x40 MLOAD DUP4 PUSH4 0xFFFFFFFF AND PUSH1 0xE0 SHL DUP2 MSTORE PUSH1 0x4 ADD PUSH2 0x4DA SWAP3 SWAP2 SWAP1 PUSH2 0xC9B JUMP JUMPDEST PUSH1 0x20 PUSH1 0x40 MLOAD DUP1 DUP4 SUB DUP2 DUP7 GAS STATICCALL ISZERO DUP1 ISZERO PUSH2 0x4F7 JUMPI RETURNDATASIZE PUSH1 0x0 DUP1 RETURNDATACOPY RETURNDATASIZE PUSH1 0x0 REVERT JUMPDEST POP POP POP POP PUSH1 0x40 MLOAD RETURNDATASIZE PUSH1 0x1F NOT PUSH1 0x1F DUP3 ADD AND DUP3 ADD DUP1 PUSH1 0x40 MSTORE POP DUP2 ADD SWAP1 PUSH2 0x51B SWAP2 SWAP1 PUSH2 0xCFC JUMP JUMPDEST JUMPDEST PUSH2 0x55B JUMPI PUSH1 0x40 MLOAD PUSH32 0x8C379A000000000000000000000000000000000000000000000000000000000 DUP2 MSTORE PUSH1 0x4 ADD PUSH2 0x552 SWAP1 PUSH2 0xD75 JUMP JUMPDEST PUSH1 0x40 MLOAD DUP1 SWAP2 SUB SWAP1 REVERT JUMPDEST PUSH1 0x40 MLOAD DUP1 PUSH1 0x40 ADD PUSH1 0x40 MSTORE DUP1 CALLER PUSH20 0xFFFFFFFFFFFFFFFFFFFFFFFFFFFFFFFFFFFFFFFF AND DUP2 MSTORE PUSH1 0x20 ADD DUP4 DUP2 MSTORE POP PUSH1 0x0 DUP1 DUP7 PUSH20 0xFFFFFFFFFFFFFFFFFFFFFFFFFFFFFFFFFFFFFFFF AND PUSH20 0xFFFFFFFFFFFFFFFFFFFFFFFFFFFFFFFFFFFFFFFF AND DUP2 MSTORE PUSH1 0x20 ADD SWAP1 DUP2 MSTORE PUSH1 0x20 ADD PUSH1 0x0 KECCAK256 PUSH1 0x0 DUP6 DUP2 MSTORE PUSH1 0x20 ADD SWAP1 DUP2 MSTORE PUSH1 0x20 ADD PUSH1 0x0 KECCAK256 PUSH1 0x0 DUP3 ADD MLOAD DUP2 PUSH1 0x0 ADD PUSH1 0x0 PUSH2 0x100 EXP DUP2 SLOAD DUP2 PUSH20 0xFFFFFFFFFFFFFFFFFFFFFFFFFFFFFFFFFFFFFFFF MUL NOT AND SWAP1 DUP4 PUSH20 0xFFFFFFFFFFFFFFFFFFFFFFFFFFFFFFFFFFFFFFFF AND MUL OR SWAP1 SSTORE POP PUSH1 0x20 DUP3 ADD MLOAD DUP2 PUSH1 0x1 ADD SSTORE SWAP1 POP POP POP POP POP POP JUMP JUMPDEST PUSH1 0x1 PUSH1 0x0 SWAP1 SLOAD SWAP1 PUSH2 0x100 EXP SWAP1 DIV PUSH20 0xFFFFFFFFFFFFFFFFFFFFFFFFFFFFFFFFFFFFFFFF AND DUP2 JUMP JUMPDEST PUSH1 0x0 DUP1 PUSH1 0x0 DUP5 PUSH20 0xFFFFFFFFFFFFFFFFFFFFFFFFFFFFFFFFFFFFFFFF AND PUSH20 0xFFFFFFFFFFFFFFFFFFFFFFFFFFFFFFFFFFFFFFFF AND DUP2 MSTORE PUSH1 0x20 ADD SWAP1 DUP2 MSTORE PUSH1 0x20 ADD PUSH1 0x0 KECCAK256 PUSH1 0x0 DUP4 DUP2 MSTORE PUSH1 0x20 ADD SWAP1 DUP2 MSTORE PUSH1 0x20 ADD PUSH1 0x0 KECCAK256 PUSH1 0x40 MLOAD DUP1 PUSH1 0x40 ADD PUSH1 0x40 MSTORE SWAP1 DUP2 PUSH1 0x0 DUP3 ADD PUSH1 0x0 SWAP1 SLOAD SWAP1 PUSH2 0x100 EXP SWAP1 DIV PUSH20 0xFFFFFFFFFFFFFFFFFFFFFFFFFFFFFFFFFFFFFFFF AND PUSH20 0xFFFFFFFFFFFFFFFFFFFFFFFFFFFFFFFFFFFFFFFF AND PUSH20 0xFFFFFFFFFFFFFFFFFFFFFFFFFFFFFFFFFFFFFFFF AND DUP2 MSTORE PUSH1 0x20 ADD PUSH1 0x1 DUP3 ADD SLOAD DUP2 MSTORE POP POP SWAP1 POP PUSH1 0x0 PUSH20 0xFFFFFFFFFFFFFFFFFFFFFFFFFFFFFFFFFFFFFFFF AND DUP2 PUSH1 0x0 ADD MLOAD PUSH20 0xFFFFFFFFFFFFFFFFFFFFFFFFFFFFFFFFFFFFFFFF AND SUB PUSH2 0x786 JUMPI PUSH1 0x40 MLOAD PUSH32 0x8C379A000000000000000000000000000000000000000000000000000000000 DUP2 MSTORE PUSH1 0x4 ADD PUSH2 0x77D SWAP1 PUSH2 0xDE1 JUMP JUMPDEST PUSH1 0x40 MLOAD DUP1 SWAP2 SUB SWAP1 REVERT JUMPDEST PUSH1 0x1 PUSH1 0x0 SWAP1 SLOAD SWAP1 PUSH2 0x100 EXP SWAP1 DIV PUSH20 0xFFFFFFFFFFFFFFFFFFFFFFFFFFFFFFFFFFFFFFFF AND PUSH20 0xFFFFFFFFFFFFFFFFFFFFFFFFFFFFFFFFFFFFFFFF AND PUSH4 0x23B872DD CALLER DUP4 PUSH1 0x0 ADD MLOAD DUP5 PUSH1 0x20 ADD MLOAD PUSH1 0x40 MLOAD DUP5 PUSH4 0xFFFFFFFF AND PUSH1 0xE0 SHL DUP2 MSTORE PUSH1 0x4 ADD PUSH2 0x7ED SWAP4 SWAP3 SWAP2 SWAP1 PUSH2 0xE01 JUMP JUMPDEST PUSH1 0x20 PUSH1 0x40 MLOAD DUP1 DUP4 SUB DUP2 PUSH1 0x0 DUP8 GAS CALL ISZERO DUP1 ISZERO PUSH2 0x80C JUMPI RETURNDATASIZE PUSH1 0x0 DUP1 RETURNDATACOPY RETURNDATASIZE PUSH1 0x0 REVERT JUMPDEST POP POP POP POP PUSH1 0x40 MLOAD RETURNDATASIZE PUSH1 0x1F NOT PUSH1 0x1F DUP3 ADD AND DUP3 ADD DUP1 PUSH1 0x40 MSTORE POP DUP2 ADD SWAP1 PUSH2 0x830 SWAP2 SWAP1 PUSH2 0xCFC JUMP JUMPDEST PUSH2 0x86F JUMPI PUSH1 0x40 MLOAD PUSH32 0x8C379A000000000000000000000000000000000000000000000000000000000 DUP2 MSTORE PUSH1 0x4 ADD PUSH2 0x866 SWAP1 PUSH2 0xE84 JUMP JUMPDEST PUSH1 0x40 MLOAD DUP1 SWAP2 SUB SWAP1 REVERT JUMPDEST DUP3 PUSH20 0xFFFFFFFFFFFFFFFFFFFFFFFFFFFFFFFFFFFFFFFF AND PUSH4 0x23B872DD DUP3 PUSH1 0x0 ADD MLOAD CALLER DUP6 PUSH1 0x40 MLOAD DUP5 PUSH4 0xFFFFFFFF AND PUSH1 0xE0 SHL DUP2 MSTORE PUSH1 0x4 ADD PUSH2 0x8B0 SWAP4 SWAP3 SWAP2 SWAP1 PUSH2 0xE01 JUMP JUMPDEST PUSH1 0x0 PUSH1 0x40 MLOAD DUP1 DUP4 SUB DUP2 PUSH1 0x0 DUP8 DUP1 EXTCODESIZE ISZERO DUP1 ISZERO PUSH2 0x8CA JUMPI PUSH1 0x0 DUP1 REVERT JUMPDEST POP GAS CALL ISZERO DUP1 ISZERO PUSH2 0x8DE JUMPI RETURNDATASIZE PUSH1 0x0 DUP1 RETURNDATACOPY RETURNDATASIZE PUSH1 0x0 REVERT JUMPDEST POP POP POP POP PUSH1 0x0 DUP1 DUP5 PUSH20 0xFFFFFFFFFFFFFFFFFFFFFFFFFFFFFFFFFFFFFFFF AND PUSH20 0xFFFFFFFFFFFFFFFFFFFFFFFFFFFFFFFFFFFFFFFF AND DUP2 MSTORE PUSH1 0x20 ADD SWAP1 DUP2 MSTORE PUSH1 0x20 ADD PUSH1 0x0 KECCAK256 PUSH1 0x0 DUP4 DUP2 MSTORE PUSH1 0x20 ADD SWAP1 DUP2 MSTORE PUSH1 0x20 ADD PUSH1 0x0 KECCAK256 PUSH1 0x0 DUP1 DUP3 ADD PUSH1 0x0 PUSH2 0x100 EXP DUP2 SLOAD SWAP1 PUSH20 0xFFFFFFFFFFFFFFFFFFFFFFFFFFFFFFFFFFFFFFFF MUL NOT AND SWAP1 SSTORE PUSH1 0x1 DUP3 ADD PUSH1 0x0 SWAP1 SSTORE POP POP POP POP POP JUMP JUMPDEST PUSH1 0x0 DUP1 REVERT JUMPDEST PUSH1 0x0 PUSH20 0xFFFFFFFFFFFFFFFFFFFFFFFFFFFFFFFFFFFFFFFF DUP3 AND SWAP1 POP SWAP2 SWAP1 POP JUMP JUMPDEST PUSH1 0x0 PUSH2 0x998 DUP3 PUSH2 0x96D JUMP JUMPDEST SWAP1 POP SWAP2 SWAP1 POP JUMP JUMPDEST PUSH2 0x9A8 DUP2 PUSH2 0x98D JUMP JUMPDEST DUP2 EQ PUSH2 0x9B3 JUMPI PUSH1 0x0 DUP1 REVERT JUMPDEST POP JUMP JUMPDEST PUSH1 0x0 DUP2 CALLDATALOAD SWAP1 POP PUSH2 0x9C5 DUP2 PUSH2 0x99F JUMP JUMPDEST SWAP3 SWAP2 POP POP JUMP JUMPDEST PUSH1 0x0 DUP2 SWAP1 POP SWAP2 SWAP1 POP JUMP JUMPDEST PUSH2 0x9DE DUP2 PUSH2 0x9CB JUMP JUMPDEST DUP2 EQ PUSH2 0x9E9 JUMPI PUSH1 0x0 DUP1 REVERT JUMPDEST POP JUMP JUMPDEST PUSH1 0x0 DUP2 CALLDATALOAD SWAP1 POP PUSH2 0x9FB DUP2 PUSH2 0x9D5 JUMP JUMPDEST SWAP3 SWAP2 POP POP JUMP JUMPDEST PUSH1 0x0 DUP1 PUSH1 0x40 DUP4 DUP6 SUB SLT ISZERO PUSH2 0xA18 JUMPI PUSH2 0xA17 PUSH2 0x968 JUMP JUMPDEST JUMPDEST PUSH1 0x0 PUSH2 0xA26 DUP6 DUP3 DUP7 ADD PUSH2 0x9B6 JUMP JUMPDEST SWAP3 POP POP PUSH1 0x20 PUSH2 0xA37 DUP6 DUP3 DUP7 ADD PUSH2 0x9EC JUMP JUMPDEST SWAP2 POP POP SWAP3 POP SWAP3 SWAP1 POP JUMP JUMPDEST PUSH2 0xA4A DUP2 PUSH2 0x98D JUMP JUMPDEST DUP3 MSTORE POP POP JUMP JUMPDEST PUSH2 0xA59 DUP2 PUSH2 0x9CB JUMP JUMPDEST DUP3 MSTORE POP POP JUMP JUMPDEST PUSH1 0x0 PUSH1 0x40 DUP3 ADD SWAP1 POP PUSH2 0xA74 PUSH1 0x0 DUP4 ADD DUP6 PUSH2 0xA41 JUMP JUMPDEST PUSH2 0xA81 PUSH1 0x20 DUP4 ADD DUP5 PUSH2 0xA50 JUMP JUMPDEST SWAP4 SWAP3 POP POP POP JUMP JUMPDEST PUSH1 0x0 DUP1 PUSH1 0x0 PUSH1 0x60 DUP5 DUP7 SUB SLT ISZERO PUSH2 0xAA1 JUMPI PUSH2 0xAA0 PUSH2 0x968 JUMP JUMPDEST JUMPDEST PUSH1 0x0 PUSH2 0xAAF DUP7 DUP3 DUP8 ADD PUSH2 0x9B6 JUMP JUMPDEST SWAP4 POP POP PUSH1 0x20 PUSH2 0xAC0 DUP7 DUP3 DUP8 ADD PUSH2 0x9EC JUMP JUMPDEST SWAP3 POP POP PUSH1 0x40 PUSH2 0xAD1 DUP7 DUP3 DUP8 ADD PUSH2 0x9EC JUMP JUMPDEST SWAP2 POP POP SWAP3 POP SWAP3 POP SWAP3 JUMP JUMPDEST PUSH1 0x0 DUP2 SWAP1 POP SWAP2 SWAP1 POP JUMP JUMPDEST PUSH1 0x0 PUSH2 0xB00 PUSH2 0xAFB PUSH2 0xAF6 DUP5 PUSH2 0x96D JUMP JUMPDEST PUSH2 0xADB JUMP JUMPDEST PUSH2 0x96D JUMP JUMPDEST SWAP1 POP SWAP2 SWAP1 POP JUMP JUMPDEST PUSH1 0x0 PUSH2 0xB12 DUP3 PUSH2 0xAE5 JUMP JUMPDEST SWAP1 POP SWAP2 SWAP1 POP JUMP JUMPDEST PUSH1 0x0 PUSH2 0xB24 DUP3 PUSH2 0xB07 JUMP JUMPDEST SWAP1 POP SWAP2 SWAP1 POP JUMP JUMPDEST PUSH2 0xB34 DUP2 PUSH2 0xB19 JUMP JUMPDEST DUP3 MSTORE POP POP JUMP JUMPDEST PUSH1 0x0 PUSH1 0x20 DUP3 ADD SWAP1 POP PUSH2 0xB4F PUSH1 0x0 DUP4 ADD DUP5 PUSH2 0xB2B JUMP JUMPDEST SWAP3 SWAP2 POP POP JUMP JUMPDEST PUSH1 0x0 DUP3 DUP3 MSTORE PUSH1 0x20 DUP3 ADD SWAP1 POP SWAP3 SWAP2 POP POP JUMP JUMPDEST PUSH32 0x4E6F206572657320656C2076656E6465646F7200000000000000000000000000 PUSH1 0x0 DUP3 ADD MSTORE POP JUMP JUMPDEST PUSH1 0x0 PUSH2 0xB9C PUSH1 0x13 DUP4 PUSH2 0xB55 JUMP JUMPDEST SWAP2 POP PUSH2 0xBA7 DUP3 PUSH2 0xB66 JUMP JUMPDEST PUSH1 0x20 DUP3 ADD SWAP1 POP SWAP2 SWAP1 POP JUMP JUMPDEST PUSH1 0x0 PUSH1 0x20 DUP3 ADD SWAP1 POP DUP2 DUP2 SUB PUSH1 0x0 DUP4 ADD MSTORE PUSH2 0xBCB DUP2 PUSH2 0xB8F JUMP JUMPDEST SWAP1 POP SWAP2 SWAP1 POP JUMP JUMPDEST PUSH1 0x0 PUSH1 0x20 DUP3 ADD SWAP1 POP PUSH2 0xBE7 PUSH1 0x0 DUP4 ADD DUP5 PUSH2 0xA50 JUMP JUMPDEST SWAP3 SWAP2 POP POP JUMP JUMPDEST PUSH1 0x0 DUP2 MLOAD SWAP1 POP PUSH2 0xBFC DUP2 PUSH2 0x99F JUMP JUMPDEST SWAP3 SWAP2 POP POP JUMP JUMPDEST PUSH1 0x0 PUSH1 0x20 DUP3 DUP5 SUB SLT ISZERO PUSH2 0xC18 JUMPI PUSH2 0xC17 PUSH2 0x968 JUMP JUMPDEST JUMPDEST PUSH1 0x0 PUSH2 0xC26 DUP5 DUP3 DUP6 ADD PUSH2 0xBED JUMP JUMPDEST SWAP2 POP POP SWAP3 SWAP2 POP POP JUMP JUMPDEST PUSH32 0x4E6F206572657320656C2070726F706965746172696F00000000000000000000 PUSH1 0x0 DUP3 ADD MSTORE POP JUMP JUMPDEST PUSH1 0x0 PUSH2 0xC65 PUSH1 0x16 DUP4 PUSH2 0xB55 JUMP JUMPDEST SWAP2 POP PUSH2 0xC70 DUP3 PUSH2 0xC2F JUMP JUMPDEST PUSH1 0x20 DUP3 ADD SWAP1 POP SWAP2 SWAP1 POP JUMP JUMPDEST PUSH1 0x0 PUSH1 0x20 DUP3 ADD SWAP1 POP DUP2 DUP2 SUB PUSH1 0x0 DUP4 ADD MSTORE PUSH2 0xC94 DUP2 PUSH2 0xC58 JUMP JUMPDEST SWAP1 POP SWAP2 SWAP1 POP JUMP JUMPDEST PUSH1 0x0 PUSH1 0x40 DUP3 ADD SWAP1 POP PUSH2 0xCB0 PUSH1 0x0 DUP4 ADD DUP6 PUSH2 0xA41 JUMP JUMPDEST PUSH2 0xCBD PUSH1 0x20 DUP4 ADD DUP5 PUSH2 0xA41 JUMP JUMPDEST SWAP4 SWAP3 POP POP POP JUMP JUMPDEST PUSH1 0x0 DUP2 ISZERO ISZERO SWAP1 POP SWAP2 SWAP1 POP JUMP JUMPDEST PUSH2 0xCD9 DUP2 PUSH2 0xCC4 JUMP JUMPDEST DUP2 EQ PUSH2 0xCE4 JUMPI PUSH1 0x0 DUP1 REVERT JUMPDEST POP JUMP JUMPDEST PUSH1 0x0 DUP2 MLOAD SWAP1 POP PUSH2 0xCF6 DUP2 PUSH2 0xCD0 JUMP JUMPDEST SWAP3 SWAP2 POP POP JUMP JUMPDEST PUSH1 0x0 PUSH1 0x20 DUP3 DUP5 SUB SLT ISZERO PUSH2 0xD12 JUMPI PUSH2 0xD11 PUSH2 0x968 JUMP JUMPDEST JUMPDEST PUSH1 0x0 PUSH2 0xD20 DUP5 DUP3 DUP6 ADD PUSH2 0xCE7 JUMP JUMPDEST SWAP2 POP POP SWAP3 SWAP2 POP POP JUMP JUMPDEST PUSH32 0x4D61726B6574706C616365206E6F206170726F6261646F000000000000000000 PUSH1 0x0 DUP3 ADD MSTORE POP JUMP JUMPDEST PUSH1 0x0 PUSH2 0xD5F PUSH1 0x17 DUP4 PUSH2 0xB55 JUMP JUMPDEST SWAP2 POP PUSH2 0xD6A DUP3 PUSH2 0xD29 JUMP JUMPDEST PUSH1 0x20 DUP3 ADD SWAP1 POP SWAP2 SWAP1 POP JUMP JUMPDEST PUSH1 0x0 PUSH1 0x20 DUP3 ADD SWAP1 POP DUP2 DUP2 SUB PUSH1 0x0 DUP4 ADD MSTORE PUSH2 0xD8E DUP2 PUSH2 0xD52 JUMP JUMPDEST SWAP1 POP SWAP2 SWAP1 POP JUMP JUMPDEST PUSH32 0x4E4654206E6F206C69737461646F000000000000000000000000000000000000 PUSH1 0x0 DUP3 ADD MSTORE POP JUMP JUMPDEST PUSH1 0x0 PUSH2 0xDCB PUSH1 0xE DUP4 PUSH2 0xB55 JUMP JUMPDEST SWAP2 POP PUSH2 0xDD6 DUP3 PUSH2 0xD95 JUMP JUMPDEST PUSH1 0x20 DUP3 ADD SWAP1 POP SWAP2 SWAP1 POP JUMP JUMPDEST PUSH1 0x0 PUSH1 0x20 DUP3 ADD SWAP1 POP DUP2 DUP2 SUB PUSH1 0x0 DUP4 ADD MSTORE PUSH2 0xDFA DUP2 PUSH2 0xDBE JUMP JUMPDEST SWAP1 POP SWAP2 SWAP1 POP JUMP JUMPDEST PUSH1 0x0 PUSH1 0x60 DUP3 ADD SWAP1 POP PUSH2 0xE16 PUSH1 0x0 DUP4 ADD DUP7 PUSH2 0xA41 JUMP JUMPDEST PUSH2 0xE23 PUSH1 0x20 DUP4 ADD DUP6 PUSH2 0xA41 JUMP JUMPDEST PUSH2 0xE30 PUSH1 0x40 DUP4 ADD DUP5 PUSH2 0xA50 JUMP JUMPDEST SWAP5 SWAP4 POP POP POP POP JUMP JUMPDEST PUSH32 0x5472616E73666572656E63696120646520746F6B656E732066616C6C69646100 PUSH1 0x0 DUP3 ADD MSTORE POP JUMP JUMPDEST PUSH1 0x0 PUSH2 0xE6E PUSH1 0x1F DUP4 PUSH2 0xB55 JUMP JUMPDEST SWAP2 POP PUSH2 0xE79 DUP3 PUSH2 0xE38 JUMP JUMPDEST PUSH1 0x20 DUP3 ADD SWAP1 POP SWAP2 SWAP1 POP JUMP JUMPDEST PUSH1 0x0 PUSH1 0x20 DUP3 ADD SWAP1 POP DUP2 DUP2 SUB PUSH1 0x0 DUP4 ADD MSTORE PUSH2 0xE9D DUP2 PUSH2 0xE61 JUMP JUMPDEST SWAP1 POP SWAP2 SWAP1 POP JUMP INVALID LOG2 PUSH5 0x6970667358 0x22 SLT KECCAK256 PUSH18 0x5769B473516D8532413E2D4B94629EFF3703 CREATE DELEGATECALL 0xB4 0xC2 PUSH20 0x13BA7970D412EFB64736F6C634300081A003300 "
				},
				"gasEstimates": {
					"creation": {
						"codeDepositCost": "760400",
						"executionCost": "infinite",
						"totalCost": "infinite"
					},
					"external": {
						"cancelarListado(address,uint256)": "34617",
						"comprarNFT(address,uint256)": "infinite",
						"listarNFT(address,uint256,uint256)": "infinite",
						"listings(address,uint256)": "infinite",
						"pagoToken()": "infinite"
					}
				},
				"methodIdentifiers": {
					"cancelarListado(address,uint256)": "890c9684",
					"comprarNFT(address,uint256)": "f998c146",
					"listarNFT(address,uint256,uint256)": "c413cc90",
					"listings(address,uint256)": "0007df30",
					"pagoToken()": "d42bb778"
				}
			},
			"storageLayout": {
				"storage": [
					{
						"astId": 222,
						"contract": "market.sol:MarketplaceNFT",
						"label": "listings",
						"offset": 0,
						"slot": "0",
						"type": "t_mapping(t_address,t_mapping(t_uint256,t_struct(Listing)215_storage))"
					},
					{
						"astId": 225,
						"contract": "market.sol:MarketplaceNFT",
						"label": "pagoToken",
						"offset": 0,
						"slot": "1",
						"type": "t_contract(IERC20)77"
					}
				],
				"types": {
					"t_address": {
						"encoding": "inplace",
						"label": "address",
						"numberOfBytes": "20"
					},
					"t_contract(IERC20)77": {
						"encoding": "inplace",
						"label": "contract IERC20",
						"numberOfBytes": "20"
					},
					"t_mapping(t_address,t_mapping(t_uint256,t_struct(Listing)215_storage))": {
						"encoding": "mapping",
						"key": "t_address",
						"label": "mapping(address => mapping(uint256 => struct MarketplaceNFT.Listing))",
						"numberOfBytes": "32",
						"value": "t_mapping(t_uint256,t_struct(Listing)215_storage)"
					},
					"t_mapping(t_uint256,t_struct(Listing)215_storage)": {
						"encoding": "mapping",
						"key": "t_uint256",
						"label": "mapping(uint256 => struct MarketplaceNFT.Listing)",
						"numberOfBytes": "32",
						"value": "t_struct(Listing)215_storage"
					},
					"t_struct(Listing)215_storage": {
						"encoding": "inplace",
						"label": "struct MarketplaceNFT.Listing",
						"members": [
							{
								"astId": 212,
								"contract": "market.sol:MarketplaceNFT",
								"label": "seller",
								"offset": 0,
								"slot": "0",
								"type": "t_address"
							},
							{
								"astId": 214,
								"contract": "market.sol:MarketplaceNFT",
								"label": "price",
								"offset": 0,
								"slot": "1",
								"type": "t_uint256"
							}
						],
						"numberOfBytes": "64"
					},
					"t_uint256": {
						"encoding": "inplace",
						"label": "uint256",
						"numberOfBytes": "32"
					}
				}
			},
			"userdoc": {
				"kind": "user",
				"methods": {},
				"version": 1
			}
		}
	}
}